S00F000050692043616C632E73726563C9
S11300000C94E2010C940C020C940C020C940C025F
S11300100C940C020C940C020C940C020C940C0224
S11300200C940C020C940C020C940C020C940C0214
S11300300C940C020C940C020C94580C0C940C02AE
S11300400C940C020C940C020C940C020C940C02F4
S11300500C940C020C940C020C940C020C940C02E4
S11300600C940C020C940C020C940C020C940C02D4
S11300700C940C020C940C020C940C020C940C02C4
S11300800C940C020C940C020C940C020C940C02B4
S11300900C940C020C940C020C940C020C940C02A4
S11300A00C940C020C940C020C940C020C940C0294
S11300B00C940C020C940C020C940C020C940C0284
S11300C00C940C020C940C020C940C020C940C0274
S11300D00C940C020C940C020C940C020C940C0264
S11300E00C940C020C940C020C940C020C940C0254
S11300F00C940C020C940C020C940C020C940C0244
S11301000C940C020C940C020C940C020C940C0233
S11301100C940C020C940C020C940C020C940C0223
S11301200C940C020C940C020C940C020C940C0213
S11301300C940C020C94B3200C940C020C940C023E
S11301400C940C020C940C020C940C020C940C02F3
S11301500C940C020C940C020C940C020C940C02E3
S11301600C940C020C940C020C940C020C940C02D3
S11301700C940C020C940C020C940C020C940C02C3
S11301800C940C020C940C020C940C020C940C02B3
S11301900C940C020C940C020C940C020C940C02A3
S11301A00C940C020C940C020C940C020C940C0293
S11301B00C94FE230C940C020C940C020C940C0270
S11301C00C940C020C940C020C940C020C940C0273
S11301D00C940C020C940C020C940C020C940C0263
S11301E00C940C020C940C020C940C020C940C0253
S11301F00C940C020C940C020C940C020E1E0E1E99
S11302000E1E951E611E8F1E0E1E0E1E951E611E55
S113021007634236B79BD8A71A39685618AEBAABEB
S1130220558C1D3CB7CC5763BD6DEDFD753EF6177F
S11302307231BF000000803F08000000BE922449D4
S1130240123EABAAAA2ABECDCCCC4C3E0000008004
S1130250BEABAAAAAA3E00000000BF000000803F77
S11302600000000000084178D3BB4387D1133D1937
S11302700E3CC3BD4282AD2B3E68EC8276BED98F64
S1130280E1A93E4C80EFFFBE01C4FF7F3F000000A8
S113029000000C948F1E0C9449190C94C8210C94E2
S11302A010210C94951E0C94F01B0C9436070C949E
S11302B0B8220C9491260C94611E0C940E1E0C947E
S11302C0F3206E616E00696E660000407A10F35A86
S11302D000A0724E18090010A5D4E80000E8764882
S11302E0170000E40B54020000CA9A3B000000E12E
S11302F0F505000080969800000040420F000000C1
S1130300A08601000000102700000000E8030000A0
S113031000006400000000000A000000000001006A
S1130320000000002C76D888DC674F0823DFC1DF8B
S1130330AE59E1B1B796E5E3E453C63AE65199768E
S113034096E8E6C28426EB898C9B62ED407C6FFCC8
S1130350EFBC9C9F40F2BAA56FA5F490055A2AF70A
S11303605C936B6CF9676DC11BFCE0E40D47FEF513
S113037020E6B500D0ED902E03009435770500807B
S1130380841E080000204E0A000000C80C333333DA
S1130390330F986E12831141EF8D2114893BE6557A
S11303A016CFFEE6DB18D1844B381BF77C1D901D5D
S11303B0A4BBE424203284725E228100C9F124ECBF
S11303C0A1E53D2711241FBECFEFCDBFDFE3DEBF84
S11303D000E00CBFEAEEFCE28AEA90E48193E030AC
S11303E0F907E0F3000010E2A0E0B0E2EEE6FEE67A
S11303F000E00BBF02C007900D92AA35B107D9F7F0
S11304002CE2AAE5B0E201C01D92AA3EB207E1F7D0
S11304100E945D200C9435370C940000CF93DF9339
S1130420CDB7DEB780EA96E020E1FC01228380EAC2
S113043096E020E2FC01228380EA96E020E4FC01BD
S1130440228380EA96E020E8FC0122830000DF9109
S1130450CF910895CF93DF93CDB7DEB780EA96E0CE
S1130460FC018085882F90E0807199279595879568
S1130470959587959595879595958795892B89F475
S113048080915A2090915B2080369A4E20F580917D
S11304905A2090915B20019680935A2090935B2080
S11304A01AC080915A2090915B200B9768F080913C
S11304B05A2090915B20C39718F01092D82C07C053
S11304C081E08093D82C03C082E08093D82C1092D2
S11304D05A2010925B2080EA96E0FC018085882FE8
S11304E090E0807299279595879595958795959530
S11304F087959595879595958795892B89F480910E
S11305005C2090915D2080369A4E20F580915C208D
S113051090915D20019680935C2090935D201AC099
S113052080915C2090915D200B9768F080915C2015
S113053090915D20C39718F01092D92C07C081E0E8
S11305408093D92C03C082E08093D92C10925C2034
S113055010925D2080EA96E0FC018085882F90E06F
S113056080749927082E892F000C881F990B000C82
S1130570881F991F892B89F480915E2090915F20B8
S113058080369A4E20F580915E2090915F200196EE
S113059080935E2090935F201AC080915E2090919A
S11305A05F200B9768F080915E2090915F20C39745
S11305B018F01092DA2C07C081E08093DA2C03C083
S11305C082E08093DA2C10925E2010925F2080EA01
S11305D096E0FC01808588238CF0809160209091C6
S11305E0612080369A4E20F58091602090916120A0
S11305F0019680936020909361201AC080916020BE
S1130600909161200B9768F0809160209091612017
S1130610C39718F01092DB2C07C081E08093DB2C89
S113062003C082E08093DB2C109260201092612042
S11306300000DF91CF910895CF93DF931F92CDB740
S1130640DEB789838981882F90E08130910579F024
S1130650823091051CF4892B39F012C08230910547
S113066049F0039751F00CC08091D82C0AC08091B6
S1130670D92C07C08091DA2C04C08091DB2C01C0F6
S113068082E00F90DF91CF9108950F93CF93DF9382
S113069000D000D0CDB7DEB78C839D836E838FE30B
S11306A090E0FC0180818B83F8948C819D81898307
S11306B09A838BE390E0FC01108289819A812E81D8
S11306C0FC0108ED04BF20838FE390E02B81FC0143
S11306D0208300002696CDBFDEBFDF91CF910F911E
S11306E00895CF93DF9300D0CDB7DEB789836A83B3
S11306F04B8380E590E02A81222311F020E201C09F
S113070020E03981322B2B81232BFC012283000032
S11307102396CDBFDEBFDF91CF910895CF93DF93B2
S11307201F921F92CDB7DEB789836A838A818F7146
S11307308A8380E590E039812A81232BFC0125837B
S113074000000F900F90DF91CF910895CF93DF9326
S11307501F921F92CDB7DEB78A8380E590E020E533
S113076030E0F9012081322F2A8120952323FC01D6
S1130770208380E590E0FC0190818A81892389832C
S113078089810F900F90DF91CF910895CF93DF93DC
S113079000D0CDB7DEB78A836B839A818B81892B96
S11307A08983698181E490E00E94450300002396D7
S11307B0CDBFDEBFDF91CF910895CF93DF931F921A
S11307C01F92CDB7DEB78A8380E490E0FC0180817C
S11307D0982F987F8A81892B8983698180E490E0AE
S11307E00E94450380E490E0FC0190818A81892382
S11307F0898389810F900F90DF91CF910895CF93D2
S1130800DF9300D0CDB7DEB789839A836B83898168
S11308109A81FC018081982F907F8B81892B282FCE
S113082089819A81FC01208300002396CDBFDEBF1D
S1130830DF91CF910895CF93DF9300D0CDB7DEB78A
S113084089839A836B8389819A81FC018181982FA2
S1130850987F8B81892B282F89819A81FC012183A0
S113086000002396CDBFDEBFDF91CF910895CF93D3
S1130870DF9300D0CDB7DEB789839A836B838981F8
S11308809A81FC018681982F9C7F8B81892B282F4C
S113089089819A81FC01268300002396CDBFDEBFA7
S11308A0DF91CF910895CF93DF9300D01F92CDB7FE
S11308B0DEB789839A836B837C838BE20E9467040F
S11308C000002496CDBFDEBFDF91CF910895CF9372
S11308D0DF931F921F92CDB7DEB78A838A818B3252
S11308E019F481E089830EC08A818C3219F482E084
S11308F0898308C08A818F3219F483E0898302C016
S113090084E0898300000F900F90DF91CF910895C8
S1130910CF93DF931F921F92CDB7DEB780E190E0B3
S11309200E94C50789839A8389819A81892B61F002
S113093089819A81FC011082118212821382898139
S11309409A8104960E94170889819A810F900F90CA
S1130950DF91CF910895CF92DF92EF92FF920F93A0
S11309601F93CF93DF93CDB7DEB76D97CDBFDEBFB7
S11309708A8B9B8B4C8B5D8B6E8B7F8B288F098F27
S1130980CA8EDB8EEC8EFD8E8A899B8989879A8735
S11309901D821E821F8218861B860E94621489850E
S11309A09A85FC0180819181A281B3818C879D8786
S11309B0AE87BF872C893D894E895F898C859D854B
S11309C0AE85BF85098DBC01CD010E945407888B7B
S11309D08889882359F18C859D85AE85BF85898357
S11309E09A83AB83BC831A8E1B8E1C8E1D8E888DBE
S11309F0882309F465C089859A85FC0120813181A9
S1130A00428153818C899D89AE89BF898095909557
S1130A10A095B09582239323A423B52329853A85F1
S1130A20F90180839183A283B3834AC08A8D9B8D0D
S1130A30AC8DBD8D892B8A2B8B2B59F48C859D8590
S1130A40AE85BF8589839A83AB83BC8381E08B8722
S1130A5037C0888D882349F08D819E81AF81B88508
S1130A60B1608D839E83AF83B887898D882349F0D5
S1130A708D819E81AF81B885B4608D839E83AF8361
S1130A80B8872C893D894E895F898D819E81AF818C
S1130A90B885822B932BA42BB52B29853A85F90194
S1130AA034962A8D3B8D4C8D5D8D89019A01AC0164
S1130AB0BD01CF010E94351719821A821B821C8244
S1130AC00E946F14898B8A8D9B8DAC8DBD8D892B73
S1130AD08A2B8B2B09F465C08989882311F40E9421
S1130AE0AE0B0E94F319DC01CB0189839A83AB839B
S1130AF0BC8389819A81AB81BC8188279927AA27E5
S1130B00B270892B8A2B8B2B09F042C0F091A20082
S1130B10FF93F87FF093A20089859A85FC01808178
S1130B209181A281B38189839A83AB83BC832C890D
S1130B303D894E895F8989819A81AB81BC81098D08
S1130B40BC01CD010E9454078823E9F0888D8823D5
S1130B50D1F089859A85FC012081318142815381BC
S1130B608C899D89AE89BF8980959095A095B09513
S1130B7082239323A423B52329853A85F90180830D
S1130B809183A283B38381E08B87FF91F093A200CA
S1130B9089819A81AB81BC81BB2789839A83AB838A
S1130BA0BC8389819A81AB81BC81BC01CD016D96E6
S1130BB0CDBFDEBFDF91CF911F910F91FF90EF90DA
S1130BC0DF90CF900895CF93DF93CDB7DEB72C9706
S1130BD0CDBFDEBF8F83988749875A876B877C8711
S1130BE08F81988589839A83F091A200FF93F87F7F
S1130BF0F093A20089819A81FC0180819181A28174
S1130C00B3818B839C83AD83BE8389819A81FC01EC
S1130C10208131814281538189859A85AB85BC8548
S1130C2080959095A095B09582239323A423B52312
S1130C3029813A81F90180839183A283B383FF914F
S1130C40F093A2008B819C81AD81BE81BC01CD015A
S1130C502C96CDBFDEBFDF91CF910895CF93DF9364
S1130C60CDB7DEB76D97CDBFDEBF888F998F4A8F22
S1130C705B8F6C8F7D8F1B821C821D821E82888DF0
S1130C80998D888799871F828885998504968A8794
S1130C909B878A859B8503968C879D870E94621417
S1130CA08A859B85FC018781908589839A838885C1
S1130CB09985FC0120813181428153818A8D9B8DEC
S1130CC0AC8DBD8D822B932BA42BB52B2885398518
S1130CD0F90180839183A283B38395C089819A812A
S1130CE0FC01848195818E879F8789819A81FC018B
S1130CF080819181A281B381888B998BAA8BBB8BD4
S1130D001F8288899989AA89BB8988279927AA2754
S1130D108C8B9D8BAE8BBF8B88899989AA89BB8963
S1130D20BB27888B998BAA8BBB8B8C899D89AE89B9
S1130D30BF8988279927AA27B470892B8A2B8B2BE4
S1130D40B1F488859985FC012081318142815381E8
S1130D5088899989AA89BB8982239323A423B523EB
S1130D60892B8A2B8B2BE9F081E08F831AC088852D
S1130D709985FC0120813181428153818889998937
S1130D80AA89BB89282339234A235B238889998923
S1130D90AA89BB89281739074A075B0711F481E040
S1130DA08F838F81882359F18C899D89AE89BF896E
S1130DB088279927AA27B170892B8A2B8B2B81F03E
S1130DC02B813C814D815E8188899989AA89BB895F
S1130DD0822B932BA42BB52B8B839C83AD83BE8357
S1130DE088859985FC0180819181A281B381B2605B
S1130DF029813A81AC01BD01C9010E9410188E8578
S1130E009F8589839A8329813A818C859D852817BA
S1130E10390709F063CF88859985FC0120813181E8
S1130E20428153818B819C81AD81BE818095909557
S1130E30A095B09582239323A423B52328853985CF
S1130E40F90180839183A283B3830E946F14888500
S1130E509985FC0180819181A281B381BC01CD017E
S1130E606D96CDBFDEBFDF91CF910895CF93DF9311
S1130E7000D000D0CDB7DEB789839A834B835C83DF
S1130E806D837E838B819C81AD81BE8129813A8172
S1130E90AC01BD01C9010E942E0600002696CDBFFB
S1130EA0DEBFDF91CF9108950F93CF93DF93CDB73A
S1130EB0DEB72A97CDBFDEBF6A837B838C839D8395
S1130EC02E833F83488759870A8719828A85882316
S1130ED099F42A813B814C815D818E819F81A88513
S1130EE0B98582239323A423B523892B8A2B8B2BA7
S1130EF0D1F081E0898317C02A813B814C815D81D7
S1130F008E819F81A885B985282339234A235B23B1
S1130F108E819F81A885B985281739074A075B0701
S1130F2011F481E0898389812A96CDBFDEBFDF91E8
S1130F30CF910F9108950F931F93CF93DF93CDB764
S1130F40DEB72997CDBFDEBF8A839B834C835D8345
S1130F506E837F8328873987288539858C819D8195
S1130F60AE81BF816A817B8189019C01AD0186E3E9
S1130F7097E00E949F1F898389812996CDBFDEBF98
S1130F80DF91CF911F910F910895CF93DF9300D0FC
S1130F901F92CDB7DEB78B839C8319821A820E947D
S1130FA0621420911A2C30911B2C8B819C81820F0E
S1130FB0931F883B9B4018F520911A2C30911B2CD1
S1130FC08B819C81280F391F80911A2C90911B2CA6
S1130FD082179307A0F480911A2C90911B2C8E59A0
S1130FE09F4D89839A8320911A2C30911B2C8B81DD
S1130FF09C81820F931F80931A2C90931B2C0E9428
S11310006F1489819A812496CDBFDEBFDF91CF9181
S11310100895CF93DF931F921F92CDB7DEB78983D4
S11310209A8300000F900F90DF91CF910895CF9392
S1131030DF931F921F92CDB7DEB789839A8389818C
S11310409A819C012D5F3F4F89819A81FC01218304
S1131050328329813A818FEF9FEFDC01F901838389
S11310609483A583B68389819A819C012D5F3F4F28
S113107089819A81FC012783308789819A819C0127
S11310802D5F3F4F89819A81FC01218732878981B5
S11310909A81FC01108200000F900F90DF91CF9194
S11310A00895CF93DF931F921F92CDB7DEB7898344
S11310B09A8389819A81FC011286138600000F901D
S11310C00F90DF91CF910895CF93DF9300D000D09C
S11310D0CDB7DEB78B839C836D837E838B819C81AC
S11310E0FC018181928189839A838D819E812981EA
S11310F03A81FC012483358389819A81FC0126810C
S113110037818D819E81FC012683378389819A8171
S1131110FC01868197812D813E81FC0124833583E6
S113112089819A812D813E81FC01268337838D81BB
S11311309E812B813C81FC01228733878B819C819A
S1131140FC01808121E0280F8B819C81FC0120839C
S113115000002696CDBFDEBFDF91CF910895CF93D7
S1131160DF93CDB7DEB72A97CDBFDEBF8F839887D5
S113117069877A8789859A85FC0180819181A2811A
S1131180B3818B839C83AD83BE838B819C81AD8132
S1131190BE818F3F9F4FAF4FBF4F41F48F819885E2
S11311A0FC018185928589839A8320C08F819885EB
S11311B0039689839A8307C089819A81FC0184817B
S11311C0958189839A8389819A81FC01848195819F
S11311D0FC0120813181428153818B819C81AD81CD
S11311E0BE8182179307A407B50730F789819A81D6
S11311F0FC012481358189859A85FC01248335830A
S113120089859A85FC018481958129853A85FC012B
S11312102683378389859A8529813A81FC0126832F
S1131220378389819A8129853A85FC012483358312
S113123089859A852F813885FC01228733878F81A0
S11312409885FC01808121E0280F8F819885FC011D
S1131250208300002A96CDBFDEBFDF91CF91089591
S1131260CF93DF9300D01F92CDB7DEB78B839C83DF
S11312708B819C81FC018285938589839A838B81F0
S11312809C81FC01848195812B813C81F90126811B
S11312903781FC01268337838B819C81FC01868105
S11312A097812B813C81F90124813581FC012483C0
S11312B0358389819A81FC01218132818B819C81D2
S11312C02817390751F48B819C81FC0126813781D1
S11312D089819A81FC01218332838B819C81FC0169
S11312E01286138689819A81FC0180812FEF280F51
S11312F089819A81FC01208389819A81FC01808102
S11313002496CDBFDEBFDF91CF9108951F93CF9375
S1131310DF93CDB7DEB780EA90E0FC01128180EA6A
S113132090E020EA30E0F9012281287FFC01228349
S1131330812FDF91CF911F910895CF93DF93CDB784
S1131340DEB72A97CDBFDEBF8D839E836F837887F8
S113135049875A878D819E8121E1FC0120838D81FB
S11313609E8101978D839E838D819E8122E2FC0163
S113137020838D819E8101978D839E838D819E81A3
S113138023E3FC0120838D819E8101978D839E83BD
S11313908F819885CC01A0E0B0E089839A83AB83E8
S11313A0BC8329818D819E81FC0120838D819E8156
S11313B001978D839E8389819A81AB81BC81892F1A
S11313C09A2FAB2FBB2789839A83AB83BC83298154
S11313D08D819E81FC0120838D819E8101978D8367
S11313E09E8389819A81AB81BC81892F9A2FAB2FEF
S11313F0BB2789839A83AB83BC8329818D819E819A
S1131400FC0120838D819E8101978D839E838D8134
S11314109E8121E3FC0120838D819E8101978D8330
S11314209E838D819E8120E8FC0120838D819E8195
S113143001978D839E838D819E8127E8FC01208303
S11314408D819E8101978D839E838D819E81FC0178
S113145010828D819E8101978D839E838D819E81D3
S1131460FC0110828D819E8101978D839E838D81E5
S11314709E8122E0FC0120838D819E8101978D83D2
S11314809E838D819E8123E0FC0120838D819E813A
S113149001978D839E838D819E8124E0FC012083AE
S11314A08D819E8101978D839E838D819E8125E010
S11314B0FC0120838D819E8101978D839E838D8184
S11314C09E8126E0FC0120838D819E8101978D837E
S11314D09E838D819E8127E0FC0120838D819E81E6
S11314E001978D839E838D819E8128E0FC0120835A
S11314F08D819E8101978D839E838D819E8129E0BC
S1131500FC0120838D819E8101978D839E838D8133
S11315109E8120E1FC0120838D819E8101978D8332
S11315209E838D819E8121E1FC0120838D819E819A
S113153001978D839E838D819E8122E1FC0120830E
S11315408D819E8101978D839E838D819E8123E170
S1131550FC0120838D819E8101978D839E838D81E3
S11315609E8124E1FC0120838D819E8101978D83DE
S11315709E838D819E8125E1FC0120838D819E8146
S113158001978D839E838D819E8126E1FC012083BA
S11315908D819E8101978D839E838D819E8127E11C
S11315A0FC0120838D819E8101978D839E838D8193
S11315B09E8128E1FC0120838D819E8101978D838A
S11315C09E838D819E8129E1FC0120838D819E81F2
S11315D001978D839E838D819E8120E2FC0120836F
S11315E08D819E8101978D839E838D819E8121E2D1
S11315F0FC0120838D819E8101978D839E838D8143
S11316009E8122E2FC0120838D819E8101978D833E
S11316109E838D819E8123E2FC0120838D819E81A6
S113162001978D839E8389859A85CC01A0E0B0E0E3
S113163089839A83AB83BC8329818D819E81FC013C
S113164020838D819E8101978D839E8389819A81D8
S1131650AB81BC81892F9A2FAB2FBB2789839A83B7
S1131660AB83BC8329818D819E81FC0120838D8184
S11316709E8101978D839E838D819E8126E2FC014C
S113168020838D819E8101978D839E838D819E8190
S113169027E2FC0120838D819E8101978D839E83A7
S11316A08D819E8128E2FC0120838D819E8101979A
S11316B08D839E838D819E8129E2FC0120838D810F
S11316C09E8101978D839E838D819E8120E3FC0101
S11316D020838D819E8101978D839E838D819E8140
S11316E02A96CDBFDEBFDF91CF910895CF93DF93CC
S11316F0CDB7DEB70E94BD0CA0911C2CB0911D2C5F
S11317000D900DBE0D900EBEEF91DF91CF91BF9164
S1131710AF919F918F917F916F915F914F913F9185
S11317202F911F910F91FF90EF90DF90CF90BF907A
S1131730AF909F908F907F906F905F904F903F906D
S11317402F901F900F90FF91F093A200FF91FFBF85
S1131750FF91089581E0DF91CF910895FF93FFB742
S1131760FF93F091A200FF93F87FF093A2000F92F1
S11317701F9211242F923F924F925F926F927F9209
S11317808F929F92AF92BF92CF92DF92EF92FF928D
S11317900F931F932F933F934F935F936F937F9375
S11317A08F939F93AF93BF93CF93DF93EF93A091C6
S11317B01C2CB0911D2C0DB60D920EB60D920E94EC
S11317C03D16A0911C2CB0911D2C0D900DBE0D90BA
S11317D00EBEEF91DF91CF91BF91AF919F918F9109
S11317E07F916F915F914F913F912F911F910F9135
S11317F0FF90EF90DF90CF90BF90AF909F908F902D
S11318007F906F905F904F903F902F901F900F901C
S1131810FF91F093A200FF91FFBFFF910895000094
S11318201F93CF93DF931F92CDB7DEB78983809147
S1131830DC2C982F8981892B8093DC2C80EA90E022
S1131840FC018081813061F080EA90E0FC018081BC
S1131850823031F080EA90E0FC018081843079F4B8
S11318608091DC2C882359F00E948609182F10924D
S1131870DC2C0E943D1680EA90E0FC0112830000FB
S11318800F90DF91CF911F9108951F93CF93DF9312
S1131890CDB7DEB70E948609182F0E942D1580EA65
S11318A090E0FC0112830000DF91CF911F91089515
S11318B0FF93FFB7FF93F091A200FF93F87FF0939B
S11318C0A2000F921F9211242F923F924F925F9287
S11318D06F927F928F929F92AF92BF92CF92DF923C
S11318E0EF92FF920F931F932F933F934F935F9326
S11318F06F937F938F939F93AF93BF93CF93DF9314
S1131900EF93A0911C2CB0911D2C0DB60D920EB628
S11319100D920E94450C81E00E94100CA0911C2C99
S1131920B0911D2C0D900DBE0D900EBEEF91DF9168
S1131930CF91BF91AF919F918F917F916F915F9163
S11319404F913F912F911F910F91FF90EF90DF9056
S1131950CF90BF90AF909F908F907F906F905F904B
S11319604F903F902F901F900F90FF91F093A20003
S1131970FF91FFBFFF9118950000CF93DF9300D034
S11319801F92CDB7DEB780E09DE7A0E0B0E0898389
S11319909A83AB83BC8389819A81AB81BC8168942F
S11319A015F8B695A795979587951694D1F78983D9
S11319B09A83AB83BC8389819A81AB81BC81019773
S11319C0A109B10989839A83AB83BC8380E098E041
S11319D029813A81FC0126A337A365E080E098E0E1
S11319E00E94FF0361E080E098E00E943704000059
S11319F02496CDBFDEBFDF91CF910895CF93DF93BF
S1131A00CDB7DEB72597CDBFDEBF8B839C836D83B7
S1131A108B819C8189839A83F091A200FF93F87F44
S1131A20F093A20089819A81FC01808191812981AE
S1131A303A81F901278D422F50E029813A81F90139
S1131A4020A1222F30E0429FB001439F700D529F8E
S1131A50700D11249B01280F391F89819A81FC0183
S1131A602283338389819A81FC01168E89819A812C
S1131A70FC012081318189819A81FC012483358391
S1131A8089819A81FC018081918129813A81F901BE
S1131A90278D222F30E0A9014150510929813A8133
S1131AA0F90120A1222F30E0429FB001439F700D25
S1131AB0529F700D11249B01280F391F89819A812F
S1131AC0FC012683378389819A812FEFFC0121A3AE
S1131AD089819A812FEFFC0122A38D81882381F4CF
S1131AE089819A81FC0180858823A1F089819A816A
S1131AF008960E94A817882369F00E94AE0B0AC0BA
S1131B0089819A8108960E94170889819A8143964F
S1131B100E941708FF91F093A20081E02596CDBFA3
S1131B20DEBFDF91CF9108950F931F93CF93DF937F
S1131B30CDB7DEB72997CDBFDEBF8F8368874987CE
S1131B408885882319F419821A820FC08F81482F3F
S1131B5050E08885282F30E0429FC001439F900DBC
S1131B60529F900D112489839A8389819A81859645
S1131B700E94C5078B839C838B819C81892B81F078
S1131B808B819C8185968D839E832B813C818D8165
S1131B909E8189012985AC0168858F810E94DA0DB7
S1131BA08B819C812996CDBFDEBFDF91CF911F91A0
S1131BB00F9108950F931F93CF93DF93CDB7DEB7A3
S1131BC02797CDBFDEBF89836A834B835C832D83D4
S1131BD00E831F838A81882341F48E819F812E8105
S1131BE03F81FC012083318307C08E819F812B813B
S1131BF03C81FC01208331838E819F812981FC01FA
S1131C00278F8E819F812A81FC0120A38E819F8151
S1131C1061E00E94FE0C8E819F812D81FC0124A332
S1131C2000002796CDBFDEBFDF91CF911F910F91AA
S1131C3008950F93CF93DF93CDB7DEB76297CDBFEF
S1131C40DEBF8A879B876C877D872E873F87488B7B
S1131C50598B0A8B19828A859B858A839B83F09191
S1131C60A200FF93F87FF093A2008A819B81FC017C
S1131C70268D8A819B81FC01878D281718F08A891B
S1131C80823019F52C853D858A819B814A89B90169
S1131C900E9417108C838A819B81FC01838988238D
S1131CA051F08A819B8143960E94A817882341F0B2
S1131CB00E94AE0B05C08C81882311F00E94AE0BEC
S1131CC0FF91F093A20081E06FC08E859F85A88963
S1131CD0B989892B8A2B8B2B29F4FF91F093A200CD
S1131CE080E062C08981882331F4CE0105960E9488
S1131CF0731881E08983FF91F093A2000E9462141B
S1131D00F091A200FF93F87FF093A2008A819B8157
S1131D10FC0181A18F3F21F48A819B81FC0111A2E6
S1131D208A819B81FC0182A18F3F21F48A819B815E
S1131D30FC0112A2FF91F093A2009E01225F3F4F8B
S1131D40CE010596B9010E949618882331F58A813F
S1131D509B810E94A2118823C9F08E859F85A88942
S1131D60B9892A813B81285F3F4FAC01BD01C9017C
S1131D700E940D178A819B810E941C110E946F147E
S1131D80882309F06CCF0E94AE0B69CF8A819B81B6
S1131D900E941C110E946F1462CF8A819B810E9451
S1131DA01C110E946F1480E06296CDBFDEBFDF91EC
S1131DB0CF910F910895CF93DF93CDB7DEB72C97D2
S1131DC0CDBFDEBF8E839F83688779874A875B8711
S1131DD02C878E819F818A839B830E9486098C83B2
S1131DE08A819B81FC01268D8A819B81FC01878DE0
S1131DF0281718F08C85823089F58A819B81FC0133
S1131E0082A18D83288539858A819B814C85B9017E
S1131E100E9417108D818F3FB9F48A819B81FC0148
S1131E2083898823C1F08A819B8143960E94A817E5
S1131E30882389F08A859B85892B69F08A859B850F
S1131E4021E0FC01208307C08D818F5F282F8A81C8
S1131E509B81FC0122A381E0898301C0198280EA6D
S1131E6090E02C81FC01228389812C96CDBFDEBFBA
S1131E70DF91CF910895CF93DF93CDB7DEB761970C
S1131E80CDBFDEBF8A879B876C877D872E873F8780
S1131E90488B598B19828A859B858A839B83F09111
S1131EA0A200FF93F87FF093A2008A819B81FC013A
S1131EB0868D8C838C81882311F12C853D858A81C4
S1131EC09B81B9010E94CC108C812FEF280F8A814D
S1131ED09B81FC01268F8A819B81FC01808588235C
S1131EE049F08A819B8108960E94A817882311F0E3
S1131EF00E94AE0BFF91F093A20081E076C08E8524
S1131F009F85A889B989892B8A2B8B2B29F4FF916A
S1131F10F093A20080E069C08981882331F4CE0166
S1131F2005960E94731881E08983FF91F093A200C3
S1131F300E946214F091A200FF93F87FF093A20034
S1131F408A819B81FC0181A18F3F21F48A819B813D
S1131F50FC0111A28A819B81FC0182A18F3F21F4A3
S1131F608A819B81FC0112A2FF91F093A2009E0141
S1131F70225F3F4FCE010596B9010E94961888232F
S1131F8031F58A819B810E9481118823C9F08E8555
S1131F909F85A889B9892A813B812D5E3F4FAC0179
S1131FA0BD01C9010E940D178A819B810E941C11E9
S1131FB00E946F14882309F072CF0E94AE0B6FCF7A
S1131FC08A819B810E941C110E946F1468CF8A81B0
S1131FD09B810E941C110E946F148A819B810E9424
S1131FE08111882309F45BCF80E06196CDBFDEBF09
S1131FF0DF91CF910895CF93DF9300D0CDB7DEB7B3
S11320008A839B83F091A200FF93F87FF093A20050
S11320108A819B81FC01868D8983FF91F093A200C4
S113202089812396CDBFDEBFDF91CF910895CF93F1
S1132030DF93CDB7DEB72797CDBFDEBF8B839C83FD
S11320406D837E834F831A828B819C81FC01868DF4
S113205089838B819C81FC0180A1882309F48EC033
S11320608F818823D9F58B819C81FC0180A1482F25
S113207050E08B819C81FC01848195812D813E817E
S1132080B9010E9437368B819C81FC012481358102
S11320908B819C81FC0180A1882F90E0280F391F3F
S11320A08B819C81FC01248335838B819C81FC0181
S11320B0248135818B819C81FC0182819381281745
S11320C0390708F45BC08B819C81FC01208131813C
S11320D08B819C81FC012483358350C08B819C813E
S11320E0FC0180A1482F50E08B819C81FC018681FA
S11320F097812D813E81B9010E9437368B819C8165
S1132100FC01268137818B819C81FC0180A1882F71
S113211090E0919581959109280F391F8B819C81BD
S1132120FC01268337838B819C81FC0126813781C6
S11321308B819C81FC018081918128173907A8F447
S11321408B819C81FC01228133818B819C81FC01E8
S113215080A1882F90E0919581959109280F391FCE
S11321608B819C81FC01268337838F81823031F4FB
S11321708981882319F0898181508983898121E0AB
S1132180280F8B819C81FC01268F8A812796CDBFE5
S1132190DEBFDF91CF910895CF93DF9300D01F92DC
S11321A0CDB7DEB789839A836B837C8389819A81D7
S11321B0FC0180A18823C9F189819A81FC012681CF
S11321C0378189819A81FC0180A1882F90E0280FB2
S11321D0391F89819A81FC012683378389819A81F9
S11321E0FC012681378189819A81FC018281938156
S11321F02817390750F089819A81FC0120813181A7
S113220089819A81FC012683378389819A81FC0123
S113221080A1482F50E089819A81FC012681378171
S11322208B819C81B9010E94373600002496CDBF72
S1132230DEBFDF91CF910895CF93DF9300D01F923B
S1132240CDB7DEB78B839C83F091A200FF93F87F18
S1132250F093A2008B819C81FC0182A1898312C02E
S11322608B819C81FC018389882381F08B819C81F3
S113227043960E94A817882311F00E943E19898171
S113228081508983898118165CF301C000008B8119
S11322909C812FEFFC0122A3FF91F093A200F09107
S11322A0A200FF93F87FF093A2008B819C81FC0134
S11322B081A18A8312C08B819C81FC018085882343
S11322C081F08B819C8108960E94A817882311F0C5
S11322D00E943E198A8181508A838A8118165CF390
S11322E001C000008B819C812FEFFC0121A3FF9191
S11322F0F093A20000002496CDBFDEBFDF91CF9102
S11323000895CF93DF9300D0CDB7DEB78A839B8344
S1132310F091A200FF93F87FF093A2008A819B8141
S1132320FC01868D882319F481E0898301C0198218
S1132330FF91F093A20089812396CDBFDEBFDF9188
S1132340CF910895CF93DF9300D0CDB7DEB78A83C2
S11323509B83F091A200FF93F87FF093A2008A81FF
S11323609B81FC01268D8A819B81FC01878D281726
S113237019F481E0898301C01982FF91F093A200CE
S113238089812396CDBFDEBFDF91CF910895CF938E
S1132390DF93CDB7DEB72997CDBFDEBF8B839C8398
S11323A04D835E836F83788729878B819C818983A2
S11323B09A83F091A200FF93F87FF093A2008981A1
S11323C09A81FC0181A18F3F21F489819A81FC01CA
S11323D011A289819A81FC0182A18F3F21F4898114
S11323E09A81FC0112A2FF91F093A20089819A8143
S11323F0FC01868D882371F489819A81FC0173968E
S11324008D819E81AF81B8852985AC01BD01CF0145
S11324100E94741789819A810E941C1100002996D8
S1132420CDBFDEBFDF91CF9108958F929F92AF927F
S1132430BF92CF92DF92EF92FF920F931F93CF93AD
S1132440DF93CDB7DEB76097CDBFDEBF8E839F83AA
S1132450688779874A875B872C873D870E87EF8655
S1132460F88A8A859B850E94C5078C839D838C810D
S11324709D81892BB9F08CE290E00E94C507898385
S11324809A8389819A81892B41F089819A812C814F
S11324903D81FC01238F348F07C08C819D810E9474
S11324A0090802C019821A8289819A81892B09F14B
S11324B08A859B85CC01A0E0B0E009811A814F8513
S11324C058892C853D8568857985EE81FF81812C2D
S11324D0912C58016A01EE8489019C01AD01CF0160
S11324E00E948C1289819A810E94621381E08B83FD
S11324F002C08FEF8B838B816096CDBFDEBFDF91EF
S1132500CF911F910F91FF90EF90DF90CF90BF90EC
S1132510AF909F908F9008958F929F92AF92BF92A9
S1132520CF92DF92EF92FF920F931F93CF93DF939B
S1132530CDB7DEB76497CDBFDEBF8C839D836E833A
S11325407F83288739874A875B870C871D87EE86B8
S1132550CF86D88AA98ABA8A8B8A9C8A28853985A3
S113256089899A89FC01838D948DA90165EA70E0BB
S11325700E94403689899A89FC01238D348D88858F
S113258099850197820F931F8A839B83198221C0A7
S11325908981882F90E02981222F30E04E815F814C
S11325A0240F351FF901408129893A89820F931F2D
S11325B04D96FC0140838981882F90E02E813F81D4
S11325C0820F931FFC018081882339F089818F5FFA
S11325D0898389818830E0F201C0000089899A8961
S11325E0FC0114A28E85843010F083E08E878989E3
S11325F09A892E85FC01228F89899A8902960E94E4
S1132600510889899A890E960E94510889899A8964
S113261029893A89FC01228733878E85882F90E0A7
S1132620A0E0B0E024E030E040E050E079018A012D
S1132630E81AF90A0A0B1B0BD801C70129893A8940
S1132640F90186879787A08BB18B89899A89298913
S11326503A89FC01268B378B89899A89FC0117A258
S113266010A611A612A689899A89FC0113A64C8585
S11326705D852C813D818A819B81B9010E949D09E0
S11326809C0189899A89FC01208331838F859889EB
S1132690892B39F08F85988929893A89FC0120830F
S11326A0318300006496CDBFDEBFDF91CF911F91CF
S11326B00F91FF90EF90DF90CF90BF90AF909F90DD
S11326C08F900895CF93DF931F921F92CDB7DEB7FB
S11326D089839A83F091A200FF93F87FF093A2007C
S11326E080917A2C8F5F80937A2C80911C2C90910E
S11326F01D2C892B69F489819A8180931C2C9093D9
S11327001D2C80917A2C8130C9F40E945C1916C06A
S11327108091802C882391F480911C2C90911D2C05
S1132720FC01228D89819A81FC01828D821730F00F
S113273089819A8180931C2C90931D2C8091842CE8
S11327408F5F8093842C2091842C89819A81FC0151
S113275025A389819A81FC01928D80917F2C891710
S113276030F489819A81FC01828D80937F2C898148
S11327709A81AC014E5F5F4F89819A81FC01828D01
S1132780282F30E06BE0629FC001639F900D1124FD
S1132790825E934DBA010E946408FF91F093A200F7
S11327A08091802C882371F080911C2C90911D2C99
S11327B0FC01228D89819A81FC01828D281710F4F5
S11327C00E94AE0B00000F900F90DF91CF910895FF
S11327D0CF93DF93CDB7DEB72597CDBFDEBF6A8336
S11327E07B838C839D8319828A819B81AC81BD818B
S11327F0892B8A2B8B2B71F00E9462148A819B8116
S1132800AC81BD8140E0BC01CD010E94391A0E9417
S11328106F1489838981882311F40E94AE0B000010
S11328202596CDBFDEBFDF91CF910895EF92FF9241
S11328300F93CF93DF931F92CDB7DEB70F2EF9E836
S1132840EF2EFCE2FF2EF02D00E020E030E048EC1B
S113285050E060E070E289E499E10E9415128983F6
S11328608981813019F40E94DA1A8983898181303F
S113287009F580EA90E020EA30E0F9012281287F1E
S1132880FC0122838FEF9FEFDC018093852C9093D2
S1132890862CA093872CB093882C81E08093802C85
S11328A010927B2C10927C2C10927D2C10927E2CFA
S11328B00E94760B00000F90DF91CF910F91FF9053
S11328C0EF900895CF93DF93CDB7DEB780918B2C33
S11328D08F5F80938B2C0000DF91CF910895CF936D
S11328E0DF9300D01F92CDB7DEB719821A821B8204
S11328F0F091A200FF93F87FF093A20080918B2CBB
S1132900815080938B2C80918B2C882309F074C088
S113291080917A2C882309F46FC046C080916B2C77
S113292090916C2CFC018085918589839A8389819F
S11329309A810E960E94300989819A8102960E949A
S1132940300989819A81FC01928D80917F2C8917AD
S113295030F489819A81FC01828D80937F2C898156
S11329609A81AC014E5F5F4F89819A81FC01828D0F
S1132970282F30E06BE0629FC001639F900D11240B
S1132980825E934DBA010E94640889819A81FC0198
S1132990228D80911C2C90911D2CFC01828D281776
S11329A018F081E08093822C8091642C882309F0B4
S11329B0B5CF89819A81892B11F00E949F1980914A
S11329C0812C8C838C81882379F00E942D15882397
S11329D019F081E08093822C8C8181508C838C81CE
S11329E0882399F71092812C8091822C882321F0DE
S11329F081E08B830E94AE0BFF91F093A2008B8148
S1132A002496CDBFDEBFDF91CF910895CF93DF939E
S1132A1000D01F92CDB7DEB7F091A200FF93F87FEC
S1132A20F093A20080917B2C90917C2CA0917D2C22
S1132A30B0917E2C89839A83AB83BC83FF91F093FE
S1132A40A20089819A81AB81BC81BC01CD0124960D
S1132A50CDBFDEBFDF91CF910895CF93DF93CDB784
S1132A60DEB72D97CDBFDEBF198280918B2C8823D2
S1132A7009F0F1C080917B2C90917C2CA0917D2C4D
S1132A80B0917E2C0196A11DB11D8A839B83AC83DA
S1132A90BD838A819B81AC81BD8180937B2C909383
S1132AA07C2CA0937D2CB0937E2C8A819B81AC815D
S1132AB0BD81892B8A2B8B2BD9F48091602C90912A
S1132AC0612C8E839F838091622C9091632C8093E0
S1132AD0602C9093612C8E819F818093622C9093C3
S1132AE0632C8091832C8F5F8093832C0E949F1989
S1132AF08091852C9091862CA091872CB091882C64
S1132B002A813B814C815D81281739074A075B077D
S1132B1008F48AC08091602C9091612CFC01808122
S1132B20882361F48FEF9FEFDC018093852C9093D1
S1132B30862CA093872CB093882C76C08091602C2F
S1132B409091612CFC0187819085FC0180859185A1
S1132B508887998788859985FC0182819381A481DE
S1132B60B5818A879B87AC87BD872A813B814C814D
S1132B705D818A859B85AC85BD85281739074A0701
S1132B805B0768F48A859B85AC85BD858093852C1D
S1132B909093862CA093872CB093882C45C088856D
S1132BA0998502960E94300988859985FC01808D5B
S1132BB0918D892B29F0888599850E960E9430097C
S1132BC088859985FC01928D80917F2C891730F43A
S1132BD088859985FC01828D80937F2C88859985D1
S1132BE0AC014E5F5F4F88859985FC01828D282F4B
S1132BF030E06BE0629FC001639F900D1124825E00
S1132C00934DBA010E94640888859985FC01228D40
S1132C1080911C2C90911D2CFC01828D281708F4A6
S1132C2079CF81E0898376CF80911C2C90911D2CE3
S1132C30FC01828D282F30E04BE0429FC001439F6E
S1132C40900D1124825E934DFC018081823040F00E
S1132C5081E0898305C08091812C8F5F8093812CD2
S1132C608091822C882311F081E0898389812D96BB
S1132C70CDBFDEBFDF91CF910895CF93DF93CDB762
S1132C80DEB72997CDBFDEBF80918B2C882321F03E
S1132C9081E08093822CBAC01092822C80911C2CEB
S1132CA090911D2CFC01838D948D8A839B8385EAEE
S1132CB095EADC018C839D83AE83BF838A819B81EB
S1132CC0FC0120813181428153818C819D81AE81BF
S1132CD0BF81281739074A075B0799F58A819B81C9
S1132CE00496FC0120813181428153818C819D8134
S1132CF0AE81BF81281739074A075B0711F58A811E
S1132D009B810896FC0120813181428153818C8111
S1132D109D81AE81BF81281739074A075B0789F473
S1132D208A819B810C96FC012081318142815381EF
S1132D308C819D81AE81BF81281739074A075B07C3
S1132D4071F080911C2C90911D2C9C01235E3F4FAF
S1132D5080911C2C90911D2CB9010E9453048091E8
S1132D607F2C898303C08981815089838981282F9D
S1132D7030E04BE0429FC001439F900D1124825EDE
S1132D80934DFC018081882371F38981282F30E0E1
S1132D904BE0429FC001439F900D1124825E934DEE
S1132DA08887998788859985FC0181819281FC01B6
S1132DB02481358188859985FC0121833283888526
S1132DC09985FC012181328188859985039628178C
S1132DD0390769F488859985FC0181819281FC0118
S1132DE02481358188859985FC01218332838885F6
S1132DF09985FC0181819281FC0180859185809374
S1132E001C2C90931D2C898180937F2C0000299683
S1132E10CDBFDEBFDF91CF910895CF93DF9300D074
S1132E2000D0CDB7DEB789839A834B835C836D83EF
S1132E307E8380911C2C90911D2C9C01225F3F4F1E
S1132E4089819A81B9010E94AF088B819C81AD81EF
S1132E50BE8141E0BC01CD010E94391A00002696D2
S1132E60CDBFDEBFDF91CF9108950F931F93CF9312
S1132E70DF93CDB7DEB72A97CDBFDEBF89839A83B0
S1132E804B835C836D837E830F83188729873A87FE
S1132E9020911C2C30911D2C8B819C81AD81BE8195
S1132EA0B068F90186879787A08BB18B80911C2C21
S1132EB090911D2C9C01225F3F4F89819A81B90119
S1132EC00E9464088F819885A985BA8541E0BC0178
S1132ED0CD010E94391A00002A96CDBFDEBFDF91D2
S1132EE0CF911F910F910895CF93DF93CDB7DEB7A4
S1132EF02797CDBFDEBF89839A834B835C836D8321
S1132F007E832F8380911C2C90911D2C9C01225F29
S1132F103F4F89819A81B9010E9464088F81882377
S1132F2039F08FEF9FEFDC018B839C83AD83BE83ED
S1132F308B819C81AD81BE814F81BC01CD010E94FA
S1132F40391A00002796CDBFDEBFDF91CF910895D7
S1132F50CF93DF93CDB7DEB72597CDBFDEBF8C838C
S1132F609D838C819D81FC0187819085FC018085F6
S1132F7091858A839B838A819B810E960E94300966
S1132F8080918B2C882351F58A819B8102960E9423
S1132F9030098A819B81FC01928D80917F2C891755
S1132FA030F48A819B81FC01828D80937F2C8A81FD
S1132FB09B81AC014E5F5F4F8A819B81FC01828DB6
S1132FC0282F30E06BE0629FC001639F900D1124B5
S1132FD0825E934DBA010E94640808C08A819B8175
S1132FE00E96BC0184E69CE20E9464088A819B815F
S1132FF0FC01228D80911C2C90911D2CFC01828D52
S1133000821730F481E0898381E08093822C01C0AF
S1133010198289812596CDBFDEBFDF91CF910895B6
S1133020CF93DF93CDB7DEB72897CDBFDEBF8B83B9
S11330309C834D835E836F8378878D819E81AF816E
S1133040B885B0682B813C81F90180839183A28388
S1133050B3838B819C81FC018085918589839A83CC
S11330608B819C810E94300989819A8102960E94F9
S1133070300989819A81FC01928D80917F2C891776
S113308030F489819A81FC01828D80937F2C89811F
S11330909A81AC014E5F5F4F89819A81FC01828DD8
S11330A0282F30E06BE0629FC001639F900D1124D4
S11330B0825E934DBA010E94640889819A81FC0161
S11330C0228D80911C2C90911D2CFC01828D8217E5
S11330D018F481E08093822C00002896CDBFDEBFD7
S11330E0DF91CF910895CF93DF931F921F92CDB7B5
S11330F0DEB789839A832091832C89819A81FC018C
S1133100208380917B2C90917C2CA0917D2CB0917C
S11331107E2C29813A81F90181839283A383B4832C
S113312000000F900F90DF91CF910895EF92FF92DE
S11331300F931F93CF93DF93CDB7DEB72D97CDBFFA
S1133140DEBF8A879B876C877D87F091A200FF93FF
S1133150F87FF093A20080917B2C90917C2CA0911D
S11331607D2CB0917E2C8A839B83AC83BD838A851E
S11331709B85FC0181819281A381B4812A813B8159
S11331804C815D8179018A01E81AF90A0A0B1B0B4B
S1133190D801C7018E839F83A887B9878C859D85B5
S11331A0FC0180819181A281B3818F3F9F4FAF4FFA
S11331B0BF4F11F4198254C08A859B85FC0190810C
S11331C08091832C981799F08A859B85FC01218135
S11331D03281438154818A819B81AC81BD81821774
S11331E09307A407B50718F081E0898339C08C855B
S11331F09D85FC0120813181428153818E819F8193
S1133200A885B98582179307A407B50700F58C85AF
S11332109D85FC0120813181428153818E819F8172
S1133220A885B98579018A01E81AF90A0A0B1B0BEA
S1133230D801C7012C853D85F90180839183A28340
S1133240B3838A859B850E947318198209C08C8573
S11332509D85FC01108211821282138281E0898390
S1133260FF91F093A20089812D96CDBFDEBFDF913F
S1133270CF911F910F91FF90EF900895CF93DF931B
S1133280CDB7DEB781E08093822C0000DF91CF912F
S11332900895CF93DF931F921F92CDB7DEB7898332
S11332A09A830E94971980911E2C823010F00E94FC
S11332B0AE0B0E943820F5CFCF93DF931F92CDB78A
S11332C0DEB7198210C08981282F30E04BE0429F7D
S11332D0C001439F900D1124825E934D0E941708F4
S11332E089818F5F89838981843068F38AE49CE2D1
S11332F00E94170885E59CE20E94170884E69CE278
S11333000E9417088FE69CE20E9417088AE49CE258
S11333108093602C9093612C85E59CE28093622CD1
S11333209093632C00000F90DF91CF910895CF9379
S1133330DF93CDB7DEB70000DF91CF910895CF932F
S1133340DF931F921F92CDB7DEB78091602C9091CE
S1133350612CFC018081882361F48FEF9FEFDC01F5
S11333608093852C9093862CA093872CB093882CE3
S11333701BC08091602C9091612CFC018781908509
S1133380FC018085918589839A8389819A81FC01D6
S113339082819381A481B5818093852C9093862C1E
S11333A0A093872CB093882C00000F900F90DF918E
S11333B0CF910895CF93DF931F92CDB7DEB780915D
S11333C0802C882319F481E0898308C080918B2C98
S11333D0882319F482E0898301C0198289810F90BE
S11333E0DF91CF910895EF92FF920F931F93CF93A4
S11333F0DF9300D01F92CDB7DEB780911C2C909143
S11334001D2CFC0186859785A089B18989839A83BF
S1133410AB83BC8360911C2C70911D2C80911C2C5F
S113342090911D2CFC01828D882F90E0A0E0B0E0EB
S113343024E030E040E050E079018A01E81AF90A1A
S11334400A0B1B0BD801C701FB0186879787A08B4A
S1133450B18B89819A81AB81BC81BC01CD01249659
S1133460CDBFDEBFDF91CF911F910F91FF90EF9001
S11334700895CF93DF93CDB7DEB72D97CDBFDEBFD1
S113348069877A878B879C874D8780917B2C909165
S11334907C2CA0917D2CB0917E2C89839A83AB8364
S11334A0BC8380911C2C90911D2C02960E943009A3
S11334B089859A85AB85BC858F3F9F4FAF4FBF4FA2
S11334C071F48D85882359F080911C2C90911D2CCA
S11334D00296BC018FE69CE20E94640864C02981C4
S11334E03A814B815C8189859A85AB85BC85820F45
S11334F0931FA41FB51F8D839E83AF83B88720912C
S11335001C2C30911D2C8D819E81AF81B885F901D1
S113351082839383A483B5832D813E814F81588513
S113352089819A81AB81BC81281739074A075B07D7
S113353078F480911C2C90911D2C9C012E5F3F4FA0
S11335408091622C9091632CB9010E94AF082BC02A
S113355080911C2C90911D2C9C012E5F3F4F8091DB
S1133560602C9091612CB9010E94AF088091852C48
S11335709091862CA091872CB091882C2D813E812E
S11335804F815885281739074A075B0760F48D81F6
S11335909E81AF81B8858093852C9093862CA093CF
S11335A0872CB093882C00002D96CDBFDEBFDF9111
S11335B0CF910895EF92FF920F93CF93DF931F92D1
S11335C0CDB7DEB719820E946B1F8091A62C909113
S11335D0A72C892B91F00F2EF8EAEF2EFCE2FF2E98
S11335E0F02D03E020E030E04CE251E065E070E2D1
S11335F080EF9BE10E941512898389810F90DF91EE
S1133600CF910F91FF90EF900895CF92DF92EF92B8
S1133610FF920F931F93CF93DF93CDB7DEB76797D6
S1133620CDBFDEBF8B879C876D872E873F87488BF6
S1133630598B0A8B1B8BCC8ADD8AEE8AFF8A19820E
S11336408091A62C9091A72C892B09F444C08D85D8
S11336508A838E859F85A889B9898B839C83AD8352
S1133660BE838B859C858F8398878D85863034F5C2
S11336700E94DA19823099F4E091A62CF091A72CDB
S11336808C899D89AE89BF89BE016E5F7F4F00E042
S11336909C01AD01CF010E94190E89831CC0809149
S11336A0A62C9091A72CBE016E5F7F4F00E020E016
S11336B030E0A9010E94190E89830DC08091A62CC7
S11336C09091A72C4A895B89BE016E5F7F4F20E0F1
S11336D00E94DB0E898389816796CDBFDEBFDF91AF
S11336E0CF911F910F91FF90EF90DF90CF900895AD
S11336F0CF92DF92EF92FF920F931F93CF93DF93BA
S1133700CDB7DEB72B97CDBFDEBF6C837D838E83B1
S11337109F83288739874A875B878091A22C909161
S1133720A32CFC0187819085FC0180859185898388
S11337309A8389819A8102960E94300989819A81AB
S1133740FC0182898130B1F589819A81FC01268549
S11337503785408951898C819D81AE81BF81820FDB
S1133760931FA41FB51FEC80FD800E811F81288547
S113377039854A855B85E981FA8167017801890188
S11337809A01AC01BD01CF010E940E1D882391F066
S11337908C819D81AE81BF81E981FA81C12CD12CBC
S11337A0760100E010E09C01AD0160E0CF010E94D1
S11337B0051B8B8389819A81FC012589368989813E
S11337C09A81F901199500002B96CDBFDEBFDF91D8
S11337D0CF911F910F91FF90EF90DF90CF900895BC
S11337E0CF93DF93CDB7DEB72797CDBFDEBF8E83F0
S11337F09F83CE0105960E948B1CDC01CB0189833B
S11338009A83AB83BC832D8189819A81AB81BC81EE
S1133810422FBC01CD010E94101C0E94A71DE9CFBC
S1133820EF92FF920F931F93CF93DF93CDB7DEB741
S11338302A97CDBFDEBF6E837F83888799874A87A7
S11338400E946214CE0105960E94C91CDC01CB01C2
S113385089839A83AB83BC838D81882309F04EC00E
S11338608A858823E1F42E813F81488559858981A1
S11338709A81AB81BC8182179307A407B50778F0BE
S11338800E946F1429813A814B815C818E819F81D2
S1133890A885B985BC01CD010E94781B31C08A85F9
S11338A0882359F08091A42C9091A52CFC0190813F
S11338B081E0992309F080E08A872E813F81488541
S11338C0598589819A81AB81BC8179018A01E81A81
S11338D0F90A0A0B1B0BD801C701E091A62CF09141
S11338E0A72C2A85AC01BD01CF010E94C7110E94FB
S11338F06F14882329F40E94AE0B02C00E946F1437
S113390000002A96CDBFDEBFDF91CF911F910F91AA
S1133910FF90EF900895CF93DF9300D000D0CDB700
S1133920DEB78D839E838091A22C9091A32CFC0101
S1133930908181E0992309F080E0282F8D819E8178
S1133940FC0120838D819E81FC018081882389F480
S11339508091A22C9091A32CFC0187819085FC017D
S113396080819181A281B38189839A83AB83BC8353
S113397004C019821A821B821C8289819A81AB81BC
S1133980BC81BC01CD012696CDBFDEBFDF91CF91B6
S11339900895CF93DF9300D000D0CDB7DEB78D83E9
S11339A09E830E940615DC01CB0189839A83AB8335
S11339B0BC838091AA2C9091AB2CA091AC2CB0919B
S11339C0AD2C29813A814B815C81281739074A073C
S11339D05B0740F40E94B11E8D819E8121E0FC01B1
S11339E0208304C08D819E81FC01108289819A818B
S11339F0AB81BC818093AA2C9093AB2CA093AC2C6C
S1133A00B093AD2C89819A81AB81BC81BC01CD017D
S1133A102696CDBFDEBFDF91CF910895CF92DF927E
S1133A20EF92FF920F931F93CF93DF93CDB7DEB73F
S1133A302F97CDBFDEBF8A839B834C835D836E83C8
S1133A407F83088719872A873B87CC86DD86EE86A5
S1133A50FF8619822A813B818C819D81AE81BF8141
S1133A60F90182839383A483B5838A819B812A810C
S1133A703B81FC01228733872C813D814E815F810C
S1133A8088859985AA85BB8582179307A407B507FE
S1133A9040F1288539854A855B858C859D85AE8571
S1133AA0BF85281B390B4A0B5B0B8A819B81FC0168
S1133AB086859785A089B189281739074A075B0746
S1133AC018F081E0898336C08A819B819C012E5F36
S1133AD03F4F8091A42C9091A52CB9010E94AF086E
S1133AE029C0288539854A855B858C859D85AE8569
S1133AF0BF85281739074A075B0780F42C813D816D
S1133B004E815F818C859D85AE85BF8528173907D9
S1133B104A075B0718F081E089830CC08A819B8186
S1133B209C012E5F3F4F8091A22C9091A32CB90150
S1133B300E94AF0889812F96CDBFDEBFDF91CF9160
S1133B401F910F91FF90EF90DF90CF900895CF9247
S1133B50DF92EF92FF920F931F93CF93DF93CDB732
S1133B60DEB76597CDBFDEBFE0C08A858823FCF44D
S1133B70CE010A96019689839A8389819A81FC01F0
S1133B802081318189819A81FC0184819581A6817A
S1133B90B78149815A81FA010280F381E02DEC8BCF
S1133BA0FD8BAC01BD018C899D89F90119958A852C
S1133BB088230CF4BAC08F8598898B839C838B816E
S1133BC09C81FC0184859585892B29F08B819C81BE
S1133BD002960E943009CE0143960E94C91CDC0162
S1133BE0CB018D839E83AF83B8878A85082E000C12
S1133BF0990B092E000CAA0BBB0B40E050E029E006
S1133C0030E0841B950B2817390708F48DC0FC019C
S1133C108827E250FF4F8F4F0C944C35EB84FC8483
S1133C200D851E852B853C854D855E858B819C810C
S1133C30FC0186859785A089B189820F931FA41FF3
S1133C40B51F2D813E814F815885EB81FC81670131
S1133C50780189019A01AC01BD01CF010E940E1DBA
S1133C60882309F462C08B819C81FC0125893689F3
S1133C708B819C81F90119958B819C81FC0182893E
S1133C80813009F052C02B853C854D855E858B8142
S1133C909C81FC0186859785A089B189820F931F39
S1133CA0A41FB51FEB81FC81C12CD12C760100E04F
S1133CB010E09C01AD0160E0CF010E94051B8987E3
S1133CC034C08B859C85AD85BE852B813C81F901F3
S1133CD086879787A08BB18B8B819C81FC0126857D
S1133CE03785408951898D819E81AF81B885820F46
S1133CF0931FA41FB51FED80FE800F8118852D81B1
S1133D003E814F815885EB81FC81670178018901EF
S1133D109A01AC01BD01CF010E940E1D06C08B812A
S1133D209C810E94090801C000008091A62C9091FA
S1133D30A72CBE01665F7F4F20E030E0A9010E94FE
S1133D403B0F882309F011CF00006596CDBFDEBF7D
S1133D50DF91CF911F910F91FF90EF90DF90CF9063
S1133D600895CF92DF92EF92FF920F931F93CF9318
S1133D70DF93CDB7DEB72D97CDBFDEBF82C0809174
S1133D80A22C9091A32CFC0187819085FC01808159
S1133D909181A281B38189839A83AB83BC8380910F
S1133DA0A22C9091A32CFC0187819085FC01808535
S1133DB091858D839E838D819E8102960E94300918
S1133DC08D819E81FC01258936898D819E81F90131
S1133DD019958D819E81FC018289813009F051C041
S1133DE08D819E81FC012685378540895189898191
S1133DF09A81AB81BC81820F931FA41FB51F8F834F
S1133E009887A987BA872F81388549855A858981FA
S1133E109A81AB81BC8182179307A407B507F8F494
S1133E202D813E818F819885A985BA85F901828388
S1133E309383A483B5838D819E812D813E81FC0172
S1133E40228733878D819E819C012E5F3F4F809115
S1133E50A22C9091A32CB9010E94AF0812C08981B1
S1133E609A81AB81BC81ED81FE81C12CD12C76017C
S1133E7000E010E09C01AD0160E0CF010E94051B51
S1133E808B878091A22C9091A32CFC0180818823A4
S1133E9009F075CF8091A22C9091A32C8C879D87DB
S1133EA08091A42C9091A52C8093A22C9093A32C68
S1133EB08C859D858093A42C9093A52C00002D9631
S1133EC0CDBFDEBFDF91CF911F910F91FF90EF9097
S1133ED0DF90CF900895CF93DF93CDB7DEB7F09105
S1133EE0A200FF93F87FF093A2008091A62C9091FA
S1133EF0A72C892BE9F48CE89CE20E94170887E937
S1133F009CE20E9417088CE89CE28093A22C909378
S1133F10A32C87E99CE28093A42C9093A52C40E0E9
S1133F2069E08AE00E94940D8093A62C9093A72CBC
S1133F30FF91F093A2000000DF91CF9108950F93B9
S1133F401F93CF93DF93CDB7DEB76497CDBFDEBFAA
S1133F508B879C876D877E872F87388B498B5A8BFD
S1133F600B8B1C8B8EEF8A838B859C858B839C8328
S1133F708D859E858D839E838F859889A989BA892D
S1133F808F839887A987BA878091A62C9091A72CB4
S1133F904B895C89BE016E5F7F4F20E00E94DB0E7F
S1133FA0898389816496CDBFDEBFDF91CF911F9154
S1133FB00F910895CF93DF93CDB7DEB780E590E0FE
S1133FC020E530E0F90120812160FC01208380E5B7
S1133FD090E0FC018181882F90E081709927892BE2
S1133FE0B1F380E00E94DD038EE10E94A60360E04D
S1133FF080E00E94C60343E060E080E40E94710315
S113400080E590E020E530E0F90120812860FC01A2
S1134010208380E590E0FC018181882F90E0887006
S11340209927892BB1F364E080EC0E948E0380E52C
S113403090E020E530E0F90120812061FC0120833B
S113404060E080E00E94C60380E590E0FC0181818D
S1134050882F90E080719927892BB1F384E00E9426
S1134060DD0387E00E94A6030000DF91CF9108954D
S1134070CF93DF93CDB7DEB70000DF91CF910895E2
S1134080CF93DF93CDB7DEB780E099E025E0FC0164
S1134090208380E099E0FC01118280E099E023E034
S11340A0FC01268380E099E028E833E1FC0126A3A3
S11340B037A30000DF91CF910895EF92FF920F9301
S11340C0CF93DF931F92CDB7DEB70E94492D89832A
S11340D00E94DA1F0E9493250E940E020E94880407
S11340E08093AE2C9093AF2CE12CF12C01E020E0D6
S11340F030E04EE551E06DE070E283EF90E20E9423
S11341001512E12CF12C02E020E030E04EE551E004
S113411069E170E280E191E20E941512E12CF12C38
S113412001E020E030E04EE551E061E270E288EC2D
S113413091E20E941512E12CF12C01E020E030E024
S11341404EE551E069E270E288EB92E20E941512BA
S11341500E94161480E090E00F90DF91CF910F91B0
S1134160FF90EF9008951F920F9200903F000F92DE
S1134170112400903B000F922F933F934F935F9332
S11341806F937F938F939F93AF93BF93EF93FF931B
S1134190CF93DF931F92CDB7DEB719828091AE2CF7
S11341A09091AF2C9E012F5F3F4F40E050E0BA0149
S11341B00E949B0700000F90DF91CF91FF91EF9138
S11341C0BF91AF919F918F917F916F915F914F912B
S11341D03F912F910F9000923B000F9000923F006F
S11341E00F901F901895CF93DF9300D0CDB7DEB713
S11341F08A839B830E94402089818F5F8983898180
S1134200823329F481E08093E12C198202C0109258
S1134210E12C61E070E080E090E00E94E813ECCFD4
S1134220CF92DF92EF92FF920F93CF93DF931F927F
S11342301F92CDB7DEB789839A8306C061E070E030
S113424080E090E00E94E8138091AE2C9091AF2C16
S1134250892BA1F38091E12C813009F06DC080910C
S1134260AE2C9091AF2C0F2EFAE0CF2ED12CE12C56
S1134270F12CF02D00E021E043E050E060E070E03C
S11342800E94AB040E94DE278091DD2C9091DE2CED
S1134290A091DF2CB091E02C2B2F2F932A2F2F935A
S11342A0292F2F938F938FE290E2892F8F938FE2A0
S11342B090E28F931F921F921F921F920E94F027E9
S11342C08DB79EB70A96CDBFDEBF8091AE2C90917C
S11342D0AF2C0F2EFAE0CF2ED12CE12CF12CF02DA7
S11342E001E021E044E050E060E070E00E94AB04B3
S11342F00E94DE278091E22C9091E32CA091E42C83
S1134300B091E52C2B2F2F932A2F2F93292F2F9306
S11343108F938EE390E2892F8F938EE390E28F93B5
S11343201F921F921F9281E08F930E94F0278DB7F6
S11343309EB70A96CDBFDEBF0E942A0280E00E948B
S11343401C038130F1F48091AE2C9091AF2C42E0AB
S113435050E060E070E00E942E068091AE2C9091B7
S1134360AF2C46E050E060E070E00E942E068091A1
S1134370AE2C9091AF2C45E050E060E070E00E94DC
S1134380E30564E670E080E090E00E94E81362CF09
S1134390CF92DF92EF92FF920F93CF93DF93CDB73B
S11343A0DEB72E97CDBFDEBF8D879E8719821A8216
S11343B01B821C8280E896E9A8E9B0E089879A8785
S11343C0AB87BC8706C061E070E080E090E00E94AB
S11343D0E8138091AE2C9091AF2C892BA1F380919E
S11343E0AE2C9091AF2C0F2EFAE0CF2ED12CE12CD5
S11343F0F12CF02D00E021E046E050E060E070E0B8
S11344000E94AB04DC01CB01892B8A2B8B2B39F363
S113441081E090E0A0E0B0E08D839E83AF83B88715
S113442098C08D819E81AF81B8850196A11DB11D73
S1134430BC01CD010E94B62EDC01CB019C01AD0173
S113444060E070E080E89FEB0E94DA2F6B017C0152
S11344508D819E81AF81B885880F991FAA1FBB1FCC
S11344600197A109B109BC01CD010E94B62EDC015E
S1134470CB019C01AD01C701B6010E940E2EDC01E7
S1134480CB019C01AD0169817A818B819C810E9461
S11344909D2DDC01CB0189839A83AB83BC8320E00F
S11344A030E040E850E469817A818B819C810E94EC
S11344B06D2FDC01CB018093DD2C9093DE2CA09337
S11344C0DF2CB093E02C8091DD2C9091DE2CA09118
S11344D0DF2CB091E02C26E53EE049E450E4BC0139
S11344E0CD010E94092E8823F9F480E896E9A8E911
S11344F0B0E08D839E83AF83B8878091AE2C90917A
S1134500AF2C43E050E060E070E00E942E06109271
S1134510DD2C1092DE2C1092DF2C1092E02C1982EC
S11345201A821B821C820AC08091AE2C9091AF2CFF
S113453043E050E060E070E00E94E3058D819E81DD
S1134540AF81B8850196A11DB11D8D839E83AF8374
S1134550B8872D813E814F81588589859A85AB85A1
S1134560BC8582179307A407B50708F05ACF37CF45
S1134570CF92DF92EF92FF920F93CF93DF93CDB759
S1134580DEB76797CDBFDEBF8E8B9F8B80E090E058
S1134590A0E8BFE389839A83AB83BC8383EF94E071
S11345A0A5E3BFE38D839E83AF83B88780E090E06B
S11345B0A0E0BFE389879A87AB87BC8706C061E028
S11345C070E080E090E00E94E8138091AE2C90911E
S11345D0AF2C892BA1F38091AE2C9091AF2C0F2E90
S11345E0FAE0CF2ED12CE12CF12CF02D01E021E0CA
S11345F047E050E060E070E00E94AB0481E08D870A
S1134600F8C089819A81AB81BC818E879F87A88BF2
S1134610B98B2D813E814F81588569817A818B8147
S11346209C810E949D2DDC01CB0120E030E040E024
S113463050E4BC01CD010E940E2EDC01CB01898324
S11346409A83AB83BC832D813E814F8158856E85CF
S11346507F85888999890E946D2FDC01CB01BC017B
S1134660CD010E943030DC01CB018D839E83AF836A
S1134670B88789819A81AB81BC8120E030E040E039
S113468050E4BC01CD010E94DA2F6B017C018D81C5
S11346909E81AF81B88520E030E040E050E4BC0169
S11346A0CD010E94DA2FDC01CB019C01AD01C701D1
S11346B0B6010E949C2DDC01CB018A8B9B8BAC8BB9
S11346C0BD8B8D85882F90E0A0E0B0E0BC01CD01CA
S11346D00E94B62EDC01CB019C01AD0160E070E0CC
S11346E080E090E40E94DA2FDC01CB012A893B8927
S11346F04C895D89BC01CD010E946D2FDC01CB0189
S11347009C01AD0169857A858B859C850E949C2DD1
S1134710DC01CB0189879A87AB87BC8789819A8121
S1134720AB81BC8120E030E040E050E4BC01CD012D
S11347300E94DA2FDC01CB019C01AD01BC01CD014B
S11347400E949D2DDC01CB0129853A854B855C8532
S1134750BC01CD010E940E2EDC01CB018093E22C22
S11347609093E32CA093E42CB093E52C8D858330B7
S113477099F58091AE2C9091AF2C44E050E060E02C
S113478070E00E942E061092E22C1092E32C1092FC
S1134790E42C1092E52C80E090E0A0E8BFE389834C
S11347A09A83AB83BC8383EF94E0A5E3BFE38D835B
S11347B09E83AF83B88780E090E0A0E0BFE3898761
S11347C09A87AB87BC871E861F86188A198A1A8A1D
S11347D01B8A1C8A1D8A0AC08091AE2C9091AF2C32
S11347E044E050E060E070E00E94E3058D858F5F57
S11347F08D878D85843008F404CF00CF1F920F92EB
S113480000903F000F92112400903B000F922F93D1
S11348103F934F935F936F937F938F939F93AF9344
S1134820BF93EF93FF93CF93DF931F92CDB7DEB780
S113483019828091E82C9091E92C9E012F5F3F4FC3
S113484041E050E060E070E00E949B0760E080E09F
S11348509BE00E94FF0380E09BE0FC0116820000C5
S11348600F90DF91CF91FF91EF91BF91AF919F9105
S11348708F917F916F915F914F913F912F910F9005
S113488000923B000F9000923F000F901F901895EC
S1134890CF92DF92EF92FF920F93CF93DF9300D0EA
S11348A01F92CDB7DEB769837A838B839C8389811A
S11348B09A81AB81BC810297A105B10540F482E0E5
S11348C090E0A0E0B0E089839A83AB83BC8380E06E
S11348D09BE021E0FC01268380E09BE0FC0110A228
S11348E011A260E080E09BE00E941B0489819A8110
S11348F0AB81BC818E3F9F4FA105B10598F420E0A8
S11349003BE089819A81AB81BC81B695A795979547
S11349108795F90186A397A365E080E09BE00E9458
S1134920FF031FC089819A81AB81BC81803492448A
S1134930AF40B105B0F420E03BE089819A81AB81BE
S1134940BC81689414F8B695A795979587951694A5
S1134950D1F7F90186A397A367E080E09BE00E946A
S1134960FF038091E82C9091E92C0F2EF4EFCF2EC9
S1134970DD24D394E12CF12CF02D00E021E041E082
S113498050E060E070E00E94AB0400002496CDBFCC
S1134990DEBFDF91CF910F91FF90EF90DF90CF902A
S11349A00895CF93DF931F92CDB7DEB789838981B2
S11349B08F70898389818295807F898380E096E0E6
S11349C020E036E0F901348129812F602323FC01A2
S11349D0248380E096E020E036E0F90134812981E7
S11349E0232BFC01248300000F90DF91CF910895C5
S11349F0CF93DF931F92CDB7DEB789838981882354
S1134A0031F080E696E021E0FC01258305C080E6D4
S1134A1096E021E0FC01268300000F90DF91CF9106
S1134A200895CF93DF931F92CDB7DEB78983898131
S1134A30882331F080E696E022E0FC01258305C05E
S1134A4080E696E022E0FC01268300000F90DF91CF
S1134A50CF910895CF93DF931F92CDB7DEB78983AB
S1134A608981882331F080E696E024E0FC012583E7
S1134A7005C080E696E024E0FC01268300000F9048
S1134A80DF91CF910895CF93DF93CDB7DEB781E067
S1134A900E942A2561E070E080E090E00E944824B2
S1134AA080E00E942A250000DF91CF910895CF93E2
S1134AB0DF931F92CDB7DEB78983898182958F708A
S1134AC00E94D12480E00E94F82480E00E941125F5
S1134AD00E94432589818F700E94D1240E9443251E
S1134AE000000F90DF91CF910895CF93DF931F9231
S1134AF0CDB7DEB78983898182958F700E94D124D6
S1134B0081E00E94F82480E00E9411250E94432540
S1134B1089818F700E94D1240E94432500000F9048
S1134B20DF91CF910895EF92FF920F93CF93DF938C
S1134B30CDB7DEB780E096E020E1FC01218380E080
S1134B4096E020E2FC01218380E096E020E4FC0171
S1134B50218380E096E020E8FC01218380E696E052
S1134B6021E0FC01218380E696E022E0FC01218320
S1134B7080E696E024E0FC01218380E096E020E0DA
S1134B8036E0F90124812F70FC01248380E696E04D
S1134B9020E636E0F9012481287FFC01248340E0EB
S1134BA066E188E00E94940D8093E62C9093E72CB4
S1134BB00E9488048093E82C9093E92CE12CF12C3A
S1134BC002E020E030E040E951E06BE470E281E98A
S1134BD096E20E9415120000DF91CF910F91FF9091
S1134BE0EF900895CF93DF9300D01F92CDB7DEB737
S1134BF089839A836B837C8389819A81813091052F
S1134C0089F0823091051CF4892B39F01AC0823066
S1134C10910569F0039781F014C08B8180580E943C
S1134C2057250FC08B8180540E9457250AC08B8161
S1134C308C560E94572505C08B818C520E945725A3
S1134C40000067E270E080E090E00E9448240000E9
S1134C502496CDBFDEBFDF91CF910895CF93DF932C
S1134C601F92CDB7DEB7898389810E9475256BE2D7
S1134C7070E080E090E00E94482400000F90DF91F3
S1134C80CF910895CF93DF9300D01F92CDB7DEB7B5
S1134C908B839C8319821A8219C089819A812B8102
S1134CA03C81820F931FFC0180818823A1F08981BC
S1134CB09A812B813C81820F931FFC0180810E9489
S1134CC02E2689819A81019689839A8389819A8182
S1134CD044971CF301C0000000002496CDBFDEBF42
S1134CE0DF91CF910895CF93DF9300D000D0CDB75B
S1134CF0DEB789839A836B837C834D835E832B81A8
S1134D003C8189819A81B9010E94F2258D819E811D
S1134D100E94422600002696CDBFDEBFDF91CF91D0
S1134D200895CF93DF93CDB7DEB7C057D109CDBF78
S1134D30DEBF9E0121593F4FF9018083918319827F
S1134D401A821B821C821D821E8226C01F82188624
S1134D501AC02D813E8144E1429FC001439F900DC2
S1134D6011249E012F5F3F4F280F391F8F81988593
S1134D70820F931F089620E2FC0120838F8198857F
S1134D8001968F8398878F819885449714F38D813A
S1134D909E8101968D839E838D819E810497B4F2BA
S1134DA060E47CE980E090E00E94482483E00E9473
S1134DB0D12468E873E180E090E00E9448240E94D6
S1134DC0432560EA70E080E090E00E9448240E945D
S1134DD0432560EA70E080E090E00E9448240E944D
S1134DE0432560EA70E080E090E00E94482482E07D
S1134DF00E94D1240E94432588E20E94572580E125
S1134E000E9457258CE00E94572586E00E94572572
S1134E1068EC70E080E090E00E94E8138091E82C58
S1134E209091E92C40E050E0BA010E94E305DC01D6
S1134E30CB01892B8A2B8B2B09F496C08091E82C0B
S1134E409091E92C42E050E060E070E00E94E305BC
S1134E5019821A8226C01B821C821AC029813A81B7
S1134E6044E1429FC001439F900D11249E012F5F96
S1134E703F4F280F391F8B819C81820F931F089607
S1134E8020E2FC0120838B819C8101968B839C838F
S1134E908B819C81449714F389819A81019689833B
S1134EA09A8389819A810497B4F25EC08091E62C3A
S1134EB09091E72CBE01675A7F4F2FEF3FEFA90176
S1134EC00E943B0F882309F44FC019821A8232C012
S1134ED0CE01875A9F4FFC018081482F50E0CE01BC
S1134EE0875A9F4FFC018181282F30E089819A8164
S1134EF0820F931FBE01675A7F4F29813A81260F83
S1134F00371F2E5F3F4FF901608174E1749F900158
S1134F10759F300D1124AE014F5F5F4F240F351F75
S1134F20820F931F0896FC01608389819A81019600
S1134F3089839A83CE01875A9F4FFC018181282F50
S1134F4030E089819A81820F931F44976CF49E010B
S1134F50275A3F4F89819A81820F931F0296FC0141
S1134F608081882309F0B4CF8091E62C9091E72CBE
S1134F700E94FB0F882309F099CF19821A8219C065
S1134F809E01275F3F4F49815A8164E1649FC001BC
S1134F90659F900D1124280F391F89819A81A901D9
S1134FA060E070E00E94732689819A81019689836A
S1134FB09A8389819A8104971CF32ACFCF93DF9334
S1134FC0CDB7DEB78091E82C9091E92C42E050E017
S1134FD060E070E00E942E060000DF91CF910895FA
S1134FE0CF93DF931F921F92CDB7DEB7CE010E96FB
S1134FF089839A8329813A814C855D856A857B857D
S1135000888599850E940A2800000F900F90DF91EF
S1135010CF9108950F93CF93DF93CDB7DEB7EC977D
S1135020CDBFDEBF8DAB9EAB6FAB78AF49AF5AAF90
S11350302BAF3CAF19821A821B821C820BC08B815E
S11350409C818055934DFC0110828B819C8101963B
S11350508B839C838B819C8144978CF31D821E825D
S11350600BC08D819E818C53934DFC0110828D81E8
S11350709E8101968D839E838D819E8144978CF3BE
S1135080BEC18D89853209F0A0C189AD9AAD9C015C
S11350902F5F3F4F29AF3AAFFC0180818D8B8D8903
S11350A0882F90E08536910509F446C1863691052E
S11350B054F48336910501F1843691050CF070C0E7
S11350C0859769F09CC18337910571F18837910503
S11350D009F4A8C08636910509F4E6C090C1898117
S11350E09A818C53934D25E2FC01208389819A8116
S11350F0019689839A8383C18BAD9CAD9C012E5FFD
S11351003F4F2BAF3CAFFC01808191818E8B898115
S11351109A818C53934D2E89FC01208389819A8135
S1135120019689839A836BC18BAD9CAD9C012E5FE4
S11351303F4F2BAF3CAFFC01808191818F8B988FC7
S11351401F82188617C029813A818F819885820F22
S1135150931F2F8138854F89588D240F351FF901EE
S113516020818C53934DFC0120838F819885019677
S11351708F8398878F89988D0E9447369C018F81F1
S1135180988582179307F8F28F89988D0E94473685
S11351909C0189819A81820F931F89839A832FC1ED
S11351A08BAD9CAD9C012E5F3F4F2BAF3CAFFC0100
S11351B080819181898F9A8F898D9A8D4AE050E000
S11351C060EB7CE20E945B3619861A8615C0298141
S11351D03A8189859A85820F931F29853A852055BE
S11351E0334DF90120818C53934DFC012083898533
S11351F09A85019689879A8780EB9CE20E944736BC
S11352009C0189859A858217930708F380EB9CE2B9
S11352100E9447369C0189819A81820F931F89835A
S11352209A83EDC08BAD9CAD9C012E5F3F4F2BAF9D
S11352303CAFFC0180819181898F9A8F898D9A8DF1
S113524040E150E060EB7CE20E945B361B861C86EA
S113525015C029813A818B859C85820F931F2B85EC
S11352603C852055334DF90120818C53934DFC012D
S113527020838B859C8501968B879C8780EB9CE2A1
S11352800E9447369C018B859C858217930708F3FF
S113529080EB9CE20E9447369C0189819A81820FAF
S11352A0931F89839A83ABC08BAD9CAD9C012C5F0B
S11352B03F4F2BAF3CAFFC0180819181A281B38130
S11352C08B8F9C8FAD8FBE8F8B8D9C8DAD8DBE8D46
S11352D0AC01BD0180EB9CE20E94D92A1D861E868A
S11352E015C029813A818D859E85820F931F2D8556
S11352F03E852055334DF90120818C53934DFC019B
S113530020838D859E8501968D879E8780EB9CE208
S11353100E9447369C018D859E858217930708F36A
S113532080EB9CE20E9447369C0189819A81820F1E
S1135330931F89839A8363C08BAD9CAD9C012C5FC2
S11353403F4F2BAF3CAFFC0180819181A281B3819F
S11353508B8F9C8FAD8FBE8F8B8D9C8DAD8DBE8DB5
S1135360AC01BD0180EB9CE20E94282C1F86188AA8
S113537015C029813A818F859889820F931F2F85C3
S113538038892055334DF90120818C53934DFC010C
S113539020838F85988901968F87988B80EB9CE278
S11353A00E9447369C018F8598898217930708F3DA
S11353B080EB9CE20E9447369C0189819A81820F8E
S11353C0931F89839A8300001AC089819A818C5320
S11353D0934D2D89FC01208389819A818C53934DAF
S11353E0FC0180818A3031F489819A818C53934DF8
S11353F0FC01108289819A81019689839A8389ADFF
S11354009AAD9C012F5F3F4F29AF3AAFFC018081D9
S11354108D8B8D89882309F034CE29813A818FA917
S113542098AD820F931F449754F024E130E08FA984
S113543098ADA901481B590BCA0189839A83198A1B
S11354401A8A0EC09E012F5D3F4F89899A89820F67
S1135450931FFC01108289899A890196898B9A8B02
S113546089899A89449774F38DA98F8F8FA988A30A
S11354701B8A1C8A14C08B899C898C53934DFC0114
S113548040819E012F5D3F4F8B899C89820F931F22
S1135490FC0140838B899C8901968B8B9C8B2B8987
S11354A03C8989819A81281739072CF38091E62C4D
S11354B09091E72CBE01615E7F4F00E02FEF3FEF3C
S11354C0A9010E94190E89819A81EC96CDBFDEBF95
S11354D0DF91CF910F910895CF93DF93CDB7DEB7CE
S11354E02897CDBFDEBF8F83988719821A828F8158
S11354F09885FC0180819181A281B3818B839C83F7
S1135500AD83BE8315C020E030E040E251E46B81FE
S11355107C818D819E810E940E2EDC01CB018B83C8
S11355209C83AD83BE8389819A81019689839A8302
S113553020E030E040E85FE36B817C818D819E81D7
S11355400E94682F8823FCF615C020E030E040E27A
S113555051E46B817C818D819E810E946D2FDC01E1
S1135560CB018B839C83AD83BE8389819A81019710
S113557089839A832DEC3CEC4CEC5DE36B817C815C
S11355808D819E810E94092E8823FCF22F8138850B
S11355908B819C81AD81BE81F90180839183A2833B
S11355A0B38389819A812896CDBFDEBFDF91CF91E5
S11355B00895CF92DF92EF92FF92CF93DF93CDB70E
S11355C0DEB72E97CDBFDEBF89879A874B875C876E
S11355D06D877E8719821A821B821C828B859C852B
S11355E0AD85BE8520E030E0A901BC01CD010E945B
S11355F0092E882359F489859A8520E3FC012083A8
S113560089859A850196FC01108218C18B859C8539
S1135610AD85BE8520E030E0A901BC01CD010E942A
S1135620092E88239CF489859A859C012F5F3F4F1E
S113563029873A872DE2FC0120838B859C85AD85E3
S1135640BE85B0588B879C87AD87BE87CE010B96ED
S11356500E946C2A89839A8353C08B859C85AD856F
S1135660BE8520E030E040E251E4BC01CD010E945F
S11356706D2FDC01CB01BC01CD010E94802EDC0129
S1135680CB018D839E8389859A859C012F5F3F4F33
S113569029873A872D81205DFC0120838B859C8599
S11356A0AD85BE8520E030E040E251E4BC01CD018F
S11356B00E946D2FDC01CB016C017D018D819E81E7
S11356C0092E000CAA0BBB0BBC01CD010E94B82E05
S11356D0DC01CB019C01AD01C701B6010E949C2DE8
S11356E0DC01CB018B879C87AD87BE878B819C8136
S11356F001968B839C8389819A81019789839A83FC
S113570089819A81181619060CF4A7CF8B819C8184
S1135710892B51F489859A859C012F5F3F4F2987F6
S11357203A8720E3FC01208389859A859C012F5FB9
S11357303F4F29873A872EE2FC01208314C08985D4
S11357409A859C012F5F3F4F29873A8720E3FC010C
S1135750208389819A81019789839A838B819C8193
S113576001968B839C8389819A8199230CF058C07C
S113577080915620909157202B813C81281739071E
S1135780F4F24EC08B859C85AD85BE8520E030E06B
S113579040E251E4BC01CD010E946D2FDC01CB013C
S11357A0BC01CD010E94802EDC01CB018F83988740
S11357B089859A859C012F5F3F4F29873A872F81DE
S11357C0205DFC0120838B859C85AD85BE8520E012
S11357D030E040E251E4BC01CD010E946D2FDC01B8
S11357E0CB016C017D018F819885092E000CAA0BD9
S11357F0BB0BBC01CD010E94B82EDC01CB019C0186
S1135800AD01C701B6010E949C2DDC01CB018B8741
S11358109C87AD87BE878B819C8101968B839C83FB
S113582080915620909157202B813C81281739076D
S11358300CF4A8CF89859A85FC0110822E96CDBFE1
S1135840DEBFDF91CF91FF90EF90DF90CF9008956E
S1135850CF92DF92EF92FF92CF93DF93CDB7DEB773
S11358602E97CDBFDEBF89879A874B875C876D876C
S11358707E871B821C828B859C85AD85BE8520E03E
S113588030E0A901BC01CD010E94092E882359F4FE
S113589089859A8520E3FC01208389859A85019670
S11358A0FC011082ECC08B859C85AD85BE8520E013
S11358B030E0A901BC01CD010E94092E88239CF48B
S11358C089859A859C012F5F3F4F29873A872DE26E
S11358D0FC0120838B859C85AD85BE85B0588B8764
S11358E09C87AD87BE87CE010B960E946C2A8B8362
S11358F09C838B859C85AD85BE8520E030E040E2AD
S113590051E4BC01CD010E946D2FDC01CB01BC012F
S1135910CD010E94802EDC01CB018D839E8389857D
S11359209A859C012F5F3F4F29873A872D81205DFF
S1135930FC0120838B859C85AD85BE8520E030E00D
S113594040E251E4BC01CD010E946D2FDC01CB018A
S11359506C017D018D819E81092E000CAA0BBB0B6D
S1135960BC01CD010E94B82EDC01CB019C01AD012C
S1135970C701B6010E949C2DDC01CB018B879C875B
S1135980AD87BE878B819C8101978B839C8389859E
S11359909A859C012F5F3F4F29873A872EE2FC01AD
S11359A0208319821A824EC08B859C85AD85BE8565
S11359B020E030E040E251E4BC01CD010E946D2FB3
S11359C0DC01CB01BC01CD010E94802EDC01CB01A6
S11359D08F83988789859A859C012F5F3F4F2987FC
S11359E03A872F81205DFC0120838B859C85AD85C2
S11359F0BE8520E030E040E251E4BC01CD010E94CC
S1135A006D2FDC01CB016C017D018F819885092EFE
S1135A10000CAA0BBB0BBC01CD010E94B82EDC010B
S1135A20CB019C01AD01C701B6010E949C2DDC0194
S1135A30CB018B879C87AD87BE8789819A8101962C
S1135A4089839A83809158209091592029813A81A1
S1135A50281739070CF4A8CF89859A859C012F5FF4
S1135A603F4F29873A8725E6FC01208329853A851B
S1135A708B819C814AE050E0B9010E945B362E96EE
S1135A80CDBFDEBFDF91CF91FF90EF90DF90CF903D
S1135A900895CF93DF931F92CDB7DEB782E0898359
S1135AA088E790E0FC018081882F90E0807299273C
S1135AB0892B41F088E790E020E2FC01208381E01B
S1135AC0898335C088E790E0FC018081882F90E0CD
S1135AD081709927892B41F088E790E021E0FC014F
S1135AE0208382E0898323C088E790E0FC018081E1
S1135AF0882F90E080719927892B41F088E790E006
S1135B0020E1FC01208383E0898311C088E790E0D1
S1135B10FC018081882F90E082709927892B39F0CD
S1135B2088E790E022E0FC01208384E08983898176
S1135B300F90DF91CF9108955058BB27AA270E9458
S1135B40B42D0C942E2F0E94202F38F00E94272F62
S1135B5020F039F49F3F19F426F40C941D2F0EF411
S1135B60E095E7FB0C94172FE92F0E943F2F58F381
S1135B70BA17620773078407950720F079F4A6F52E
S1135B800C94612F0EF4E0950B2EBA2FA02D0B016F
S1135B90B90190010C01CA01A0011124FF27591B6E
S1135BA099F0593F50F4503E68F11A16F040A22F74
S1135BB0232F342F4427585FF3CF469537952795E5
S1135BC0A795F0405395C9F77EF41F16BA0B620BE4
S1135BD0730B840BBAF09150A1F0FF0FBB1F661F2B
S1135BE0771F881FC2F70EC0BA0F621F731F841F6E
S1135BF048F4879577956795B795F7959E3F08F094
S1135C00B0CF9395880F08F09927EE0F9795879555
S1135C1008950E94F32E08F481E008950E94222E34
S1135C200C942E2F0E94272F58F00E94202F40F012
S1135C3029F45F3F29F00C94172F51110C94622F13
S1135C400C941D2F0E943F2F68F39923B1F3552321
S1135C5091F3951B550BBB27AA276217730784077B
S1135C6038F09F5F5F4F220F331F441FAA1FA9F311
S1135C7035D00E2E3AF0E0E832D091505040E695FF
S1135C80001CCAF72BD0FE2F29D0660F771F881F60
S1135C90BB1F261737074807AB07B0E809F0BB0B53
S1135CA0802DBF01FF2793585F4F3AF09E3F510567
S1135CB078F00C94172F0C94622F5F3FE4F3983E16
S1135CC0D4F3869577956795B795F7959F5FC9F750
S1135CD0880F911D9695879597F90895E1E0660FD1
S1135CE0771F881FBB1F621773078407BA0720F04A
