:100000000C94E2010C940C020C940C020C940C0263
:100010000C940C020C940C020C940C020C940C0228
:100020000C940C020C940C020C940C020C940C0218
:100030000C940C020C940C020C94580C0C940C02B2
:100040000C940C020C940C020C940C020C940C02F8
:100050000C940C020C940C020C940C020C940C02E8
:100060000C940C020C940C020C940C020C940C02D8
:100070000C940C020C940C020C940C020C940C02C8
:100080000C940C020C940C020C940C020C940C02B8
:100090000C940C020C940C020C940C020C940C02A8
:1000A0000C940C020C940C020C940C020C940C0298
:1000B0000C940C020C940C020C940C020C940C0288
:1000C0000C940C020C940C020C940C020C940C0278
:1000D0000C940C020C940C020C940C020C940C0268
:1000E0000C940C020C940C020C940C020C940C0258
:1000F0000C940C020C940C020C940C020C940C0248
:100100000C940C020C940C020C940C020C940C0237
:100110000C940C020C940C020C940C020C940C0227
:100120000C940C020C940C020C940C020C940C0217
:100130000C940C020C94B3200C940C020C940C0242
:100140000C940C020C940C020C940C020C940C02F7
:100150000C940C020C940C020C940C020C940C02E7
:100160000C940C020C940C020C940C020C940C02D7
:100170000C940C020C940C020C940C020C940C02C7
:100180000C940C020C940C020C940C020C940C02B7
:100190000C940C020C940C020C940C020C940C02A7
:1001A0000C940C020C940C020C940C020C940C0297
:1001B0000C9443270C940C020C940C020C940C022B
:1001C0000C940C020C940C020C940C020C940C0277
:1001D0000C940C020C940C020C940C020C940C0267
:1001E0000C940C020C940C020C940C020C940C0257
:1001F0000C940C020C940C020C940C020E1E0E1E9D
:100200000E1E951E611E8F1E0E1E0E1E951E611E59
:1002100007634236B79BD8A71A39685618AEBAABEF
:10022000558C1D3CB7CC5763BD6DEDFD753EF61783
:100230007231BF000000803F08000000BE922449D8
:10024000123EABAAAA2ABECDCCCC4C3E0000008008
:10025000BEABAAAAAA3E00000000BF000000803F7B
:100260000000000000084178D3BB4387D1133D193B
:100270000E3CC3BD4282AD2B3E68EC8276BED98F68
:10028000E1A93E4C80EFFFBE01C4FF7F3F000000AC
:1002900000000C948F1E0C9449190C9443240C9468
:1002A00028210C94951E0C94F01B0C9436070C948A
:1002B00094250C94D6290C94611E0C940E1E0C945B
:1002C000F4206E616E00696E660000407A10F35A89
:1002D00000A0724E18090010A5D4E80000E8764886
:1002E000170000E40B54020000CA9A3B000000E132
:1002F000F505000080969800000040420F000000C5
:10030000A08601000000102700000000E8030000A4
:1003100000006400000000000A000000000001006E
:10032000000000002C76D888DC674F0823DFC1DF8F
:10033000AE59E1B1B796E5E3E453C63AE651997692
:1003400096E8E6C28426EB898C9B62ED407C6FFCCC
:10035000EFBC9C9F40F2BAA56FA5F490055A2AF70E
:100360005C936B6CF9676DC11BFCE0E40D47FEF517
:1003700020E6B500D0ED902E03009435770500807F
:10038000841E080000204E0A000000C80C333333DE
:10039000330F986E12831141EF8D2114893BE6557E
:1003A00016CFFEE6DB18D1844B381BF77C1D901D61
:1003B000A4BBE424203284725E228100C9F124ECC3
:1003C000A1E53D2711241FBECFEFCDBFDFE3DEBF88
:1003D00000E00CBFE7E2FDE28AEA90E48193E030BE
:1003E000F907E0F3000010E2A0E0B0E2E8EFF4E784
:1003F00000E00BBF02C007900D92A638B107D9F7F5
:100400002DE2A6E8B0E201C01D92A732B207E1F7E3
:100410000E945D200C947A3A0C940000CF93DF93F5
:10042000CDB7DEB780EA96E020E1FC01228380EAC6
:1004300096E020E2FC01228380EA96E020E4FC01C1
:10044000228380EA96E020E8FC0122830000DF910D
:10045000CF910895CF93DF93CDB7DEB780EA96E0D2
:10046000FC018085882F90E080719927959587956C
:10047000959587959595879595958795892B89F479
:10048000809186209091872080369A4E20F5809129
:1004900086209091872001968093862090938720D4
:1004A0001AC080918620909187200B9768F08091E8
:1004B000862090918720C39718F01092052D07C0D1
:1004C00081E08093052D03C082E08093052D10927A
:1004D00086201092872080EA96E0FC018085882F94
:1004E00090E0807299279595879595958795959534
:1004F00087959595879595958795892B89F4809112
:1005000088209091892080369A4E20F5809188200D
:1005100090918920019680938820909389201AC019
:1005200080918820909189200B9768F08091882095
:1005300090918920C39718F01092062D07C081E092
:100540008093062D03C082E08093062D10928820B0
:100550001092892080EA96E0FC018085882F90E047
:1005600080749927082E892F000C881F990B000C86
:10057000881F991F892B89F480918A2090918B2064
:1005800080369A4E20F580918A2090918B2001969A
:1005900080938A2090938B201AC080918A2090911A
:1005A0008B200B9768F080918A2090918B20C397C5
:1005B00018F01092072D07C081E08093072D03C02B
:1005C00082E08093072D10928A2010928B2080EA7F
:1005D00096E0FC01808588238CF080918C2090919E
:1005E0008D2080369A4E20F580918C2090918D2020
:1005F000019680938C2090938D201AC080918C203E
:1006000090918D200B9768F080918C2090918D2097
:10061000C39718F01092082D07C081E08093082D31
:1006200003C082E08093082D10928C2010928D20C0
:100630000000DF91CF910895CF93DF931F92CDB744
:10064000DEB789838981882F90E08130910579F028
:10065000823091051CF4892B39F012C0823091054B
:1006600049F0039751F00CC08091052D0AC080918C
:10067000062D07C08091072D04C08091082D01C070
:1006800082E00F90DF91CF9108950F93CF93DF9386
:1006900000D000D0CDB7DEB78C839D836E838FE30F
:1006A00090E0FC0180818B83F8948C819D8189830B
:1006B0009A838BE390E0FC01108289819A812E81DC
:1006C000FC0108ED04BF20838FE390E02B81FC0147
:1006D000208300002696CDBFDEBFDF91CF910F9122
:1006E0000895CF93DF9300D0CDB7DEB789836A83B7
:1006F0004B8380E590E02A81222311F020E201C0A3
:1007000020E03981322B2B81232BFC012283000036
:100710002396CDBFDEBFDF91CF910895CF93DF93B6
:100720001F921F92CDB7DEB789836A838A818F714A
:100730008A8380E590E039812A81232BFC0125837F
:1007400000000F900F90DF91CF910895CF93DF932A
:100750001F921F92CDB7DEB78A8380E590E020E537
:1007600030E0F9012081322F2A8120952323FC01DA
:10077000208380E590E0FC0190818A818923898330
:1007800089810F900F90DF91CF910895CF93DF93E0
:1007900000D0CDB7DEB78A836B839A818B81892B9A
:1007A0008983698181E490E00E94450300002396DB
:1007B000CDBFDEBFDF91CF910895CF93DF931F921E
:1007C0001F92CDB7DEB78A8380E490E0FC01808180
:1007D000982F987F8A81892B8983698180E490E0B2
:1007E0000E94450380E490E0FC0190818A81892386
:1007F000898389810F900F90DF91CF910895CF93D6
:10080000DF9300D0CDB7DEB789839A836B8389816C
:100810009A81FC018081982F907F8B81892B282FD2
:1008200089819A81FC01208300002396CDBFDEBF21
:10083000DF91CF910895CF93DF9300D0CDB7DEB78E
:1008400089839A836B8389819A81FC018181982FA6
:10085000987F8B81892B282F89819A81FC012183A4
:1008600000002396CDBFDEBFDF91CF910895CF93D7
:10087000DF9300D0CDB7DEB789839A836B838981FC
:100880009A81FC018681982F9C7F8B81892B282F50
:1008900089819A81FC01268300002396CDBFDEBFAB
:1008A000DF91CF910895CF93DF9300D01F92CDB702
:1008B000DEB789839A836B837C838BE20E94670413
:1008C00000002496CDBFDEBFDF91CF910895CF9376
:1008D000DF931F921F92CDB7DEB78A838A818B3256
:1008E00019F481E089830EC08A818C3219F482E088
:1008F000898308C08A818F3219F483E0898302C01A
:1009000084E0898300000F900F90DF91CF910895CC
:10091000CF93DF931F921F92CDB7DEB780E190E0B7
:100920000E94C50789839A8389819A81892B61F006
:1009300089819A81FC01108211821282138289813D
:100940009A8104960E94170889819A810F900F90CE
:10095000DF91CF910895CF92DF92EF92FF920F93A4
:100960001F93CF93DF93CDB7DEB76D97CDBFDEBFBB
:100970008A8B9B8B4C8B5D8B6E8B7F8B288F098F2B
:10098000CA8EDB8EEC8EFD8E8A899B8989879A8739
:100990001D821E821F8218861B860E946214898512
:1009A0009A85FC0180819181A281B3818C879D878A
:1009B000AE87BF872C893D894E895F898C859D854F
:1009C000AE85BF85098DBC01CD010E945407888B7F
:1009D0008889882359F18C859D85AE85BF8589835B
:1009E0009A83AB83BC831A8E1B8E1C8E1D8E888DC2
:1009F000882309F465C089859A85FC0120813181AD
:100A0000428153818C899D89AE89BF89809590955B
:100A1000A095B09582239323A423B52329853A85F5
:100A2000F90180839183A283B3834AC08A8D9B8D11
:100A3000AC8DBD8D892B8A2B8B2B59F48C859D8594
:100A4000AE85BF8589839A83AB83BC8381E08B8726
:100A500037C0888D882349F08D819E81AF81B8850C
:100A6000B1608D839E83AF83B887898D882349F0D9
:100A70008D819E81AF81B885B4608D839E83AF8365
:100A8000B8872C893D894E895F898D819E81AF8190
:100A9000B885822B932BA42BB52B29853A85F90198
:100AA00034962A8D3B8D4C8D5D8D89019A01AC0168
:100AB000BD01CF010E94351719821A821B821C8248
:100AC0000E946F14898B8A8D9B8DAC8DBD8D892B77
:100AD0008A2B8B2B09F465C08989882311F40E9425
:100AE000AE0B0E94F319DC01CB0189839A83AB839F
:100AF000BC8389819A81AB81BC8188279927AA27E9
:100B0000B270892B8A2B8B2B09F042C0F091A20086
:100B1000FF93F87FF093A20089859A85FC0180817C
:100B20009181A281B38189839A83AB83BC832C8911
:100B30003D894E895F8989819A81AB81BC81098D0C
:100B4000BC01CD010E9454078823E9F0888D8823D9
:100B5000D1F089859A85FC012081318142815381C0
:100B60008C899D89AE89BF8980959095A095B09517
:100B700082239323A423B52329853A85F901808311
:100B80009183A283B38381E08B87FF91F093A200CE
:100B900089819A81AB81BC81BB2789839A83AB838E
:100BA000BC8389819A81AB81BC81BC01CD016D96EA
:100BB000CDBFDEBFDF91CF911F910F91FF90EF90DE
:100BC000DF90CF900895CF93DF93CDB7DEB72C970A
:100BD000CDBFDEBF8F83988749875A876B877C8715
:100BE0008F81988589839A83F091A200FF93F87F83
:100BF000F093A20089819A81FC0180819181A28178
:100C0000B3818B839C83AD83BE8389819A81FC01F0
:100C1000208131814281538189859A85AB85BC854C
:100C200080959095A095B09582239323A423B52316
:100C300029813A81F90180839183A283B383FF9153
:100C4000F093A2008B819C81AD81BE81BC01CD015E
:100C50002C96CDBFDEBFDF91CF910895CF93DF9368
:100C6000CDB7DEB76D97CDBFDEBF888F998F4A8F26
:100C70005B8F6C8F7D8F1B821C821D821E82888DF4
:100C8000998D888799871F828885998504968A8798
:100C90009B878A859B8503968C879D870E9462141B
:100CA0008A859B85FC018781908589839A838885C5
:100CB0009985FC0120813181428153818A8D9B8DF0
:100CC000AC8DBD8D822B932BA42BB52B288539851C
:100CD000F90180839183A283B38395C089819A812E
:100CE000FC01848195818E879F8789819A81FC018F
:100CF00080819181A281B381888B998BAA8BBB8BD8
:100D00001F8288899989AA89BB8988279927AA2758
:100D10008C8B9D8BAE8BBF8B88899989AA89BB8967
:100D2000BB27888B998BAA8BBB8B8C899D89AE89BD
:100D3000BF8988279927AA27B470892B8A2B8B2BE8
:100D4000B1F488859985FC012081318142815381EC
:100D500088899989AA89BB8982239323A423B523EF
:100D6000892B8A2B8B2BE9F081E08F831AC0888531
:100D70009985FC012081318142815381888999893B
:100D8000AA89BB89282339234A235B238889998927
:100D9000AA89BB89281739074A075B0711F481E044
:100DA0008F838F81882359F18C899D89AE89BF8972
:100DB00088279927AA27B170892B8A2B8B2B81F042
:100DC0002B813C814D815E8188899989AA89BB8963
:100DD000822B932BA42BB52B8B839C83AD83BE835B
:100DE00088859985FC0180819181A281B381B2605F
:100DF00029813A81AC01BD01C9010E9410188E857C
:100E00009F8589839A8329813A818C859D852817BE
:100E1000390709F063CF88859985FC0120813181EC
:100E2000428153818B819C81AD81BE81809590955B
:100E3000A095B09582239323A423B52328853985D3
:100E4000F90180839183A283B3830E946F14888504
:100E50009985FC0180819181A281B381BC01CD0182
:100E60006D96CDBFDEBFDF91CF910895CF93DF9315
:100E700000D000D0CDB7DEB789839A834B835C83E3
:100E80006D837E838B819C81AD81BE8129813A8176
:100E9000AC01BD01C9010E942E0600002696CDBFFF
:100EA000DEBFDF91CF9108950F93CF93DF93CDB73E
:100EB000DEB72A97CDBFDEBF6A837B838C839D8399
:100EC0002E833F83488759870A8719828A8588231A
:100ED00099F42A813B814C815D818E819F81A88517
:100EE000B98582239323A423B523892B8A2B8B2BAB
:100EF000D1F081E0898317C02A813B814C815D81DB
:100F00008E819F81A885B985282339234A235B23B5
:100F10008E819F81A885B985281739074A075B0705
:100F200011F481E0898389812A96CDBFDEBFDF91EC
:100F3000CF910F9108950F931F93CF93DF93CDB768
:100F4000DEB72997CDBFDEBF8A839B834C835D8349
:100F50006E837F8328873987288539858C819D8199
:100F6000AE81BF816A817B8189019C01AD0186E3ED
:100F700097E00E949F1F898389812996CDBFDEBF9C
:100F8000DF91CF911F910F910895CF93DF9300D000
:100F90001F92CDB7DEB78B839C8319821A820E9481
:100FA00062142091462C3091472C8B819C81820FBA
:100FB000931F883B9B4018F52091462C3091472C7D
:100FC0008B819C81280F391F8091462C9091472C52
:100FD00082179307A0F48091462C9091472C82575A
:100FE0009F4D89839A832091462C3091472C8B8189
:100FF0009C81820F931F8093462C9093472C0E94D4
:101000006F1489819A812496CDBFDEBFDF91CF9185
:101010000895CF93DF931F921F92CDB7DEB78983D8
:101020009A8300000F900F90DF91CF910895CF9396
:10103000DF931F921F92CDB7DEB789839A83898190
:101040009A819C012D5F3F4F89819A81FC01218308
:10105000328329813A818FEF9FEFDC01F90183838D
:101060009483A583B68389819A819C012D5F3F4F2C
:1010700089819A81FC012783308789819A819C012B
:101080002D5F3F4F89819A81FC01218732878981B9
:101090009A81FC01108200000F900F90DF91CF9198
:1010A0000895CF93DF931F921F92CDB7DEB7898348
:1010B0009A8389819A81FC011286138600000F9021
:1010C0000F90DF91CF910895CF93DF9300D000D0A0
:1010D000CDB7DEB78B839C836D837E838B819C81B0
:1010E000FC018181928189839A838D819E812981EE
:1010F0003A81FC012483358389819A81FC01268110
:1011000037818D819E81FC012683378389819A8175
:10111000FC01868197812D813E81FC0124833583EA
:1011200089819A812D813E81FC01268337838D81BF
:101130009E812B813C81FC01228733878B819C819E
:10114000FC01808121E0280F8B819C81FC012083A0
:1011500000002696CDBFDEBFDF91CF910895CF93DB
:10116000DF93CDB7DEB72A97CDBFDEBF8F839887D9
:1011700069877A8789859A85FC0180819181A2811E
:10118000B3818B839C83AD83BE838B819C81AD8136
:10119000BE818F3F9F4FAF4FBF4F41F48F819885E6
:1011A000FC018185928589839A8320C08F819885EF
:1011B000039689839A8307C089819A81FC0184817F
:1011C000958189839A8389819A81FC0184819581A3
:1011D000FC0120813181428153818B819C81AD81D1
:1011E000BE8182179307A407B50730F789819A81DA
:1011F000FC012481358189859A85FC01248335830E
:1012000089859A85FC018481958129853A85FC012F
:101210002683378389859A8529813A81FC01268333
:10122000378389819A8129853A85FC012483358316
:1012300089859A852F813885FC01228733878F81A4
:101240009885FC01808121E0280F8F819885FC0121
:10125000208300002A96CDBFDEBFDF91CF91089595
:10126000CF93DF9300D01F92CDB7DEB78B839C83E3
:101270008B819C81FC018285938589839A838B81F4
:101280009C81FC01848195812B813C81F90126811F
:101290003781FC01268337838B819C81FC01868109
:1012A00097812B813C81F90124813581FC012483C4
:1012B000358389819A81FC01218132818B819C81D6
:1012C0002817390751F48B819C81FC0126813781D5
:1012D00089819A81FC01218332838B819C81FC016D
:1012E0001286138689819A81FC0180812FEF280F55
:1012F00089819A81FC01208389819A81FC01808106
:101300002496CDBFDEBFDF91CF9108951F93CF9379
:10131000DF93CDB7DEB780EA90E0FC01128180EA6E
:1013200090E020EA30E0F9012281287FFC0122834D
:10133000812FDF91CF911F910895CF93DF93CDB788
:10134000DEB72A97CDBFDEBF8D839E836F837887FC
:1013500049875A878D819E8121E1FC0120838D81FF
:101360009E8101978D839E838D819E8122E2FC0167
:1013700020838D819E8101978D839E838D819E81A7
:1013800023E3FC0120838D819E8101978D839E83C1
:101390008F819885CC01A0E0B0E089839A83AB83EC
:1013A000BC8329818D819E81FC0120838D819E815A
:1013B00001978D839E8389819A81AB81BC81892F1E
:1013C0009A2FAB2FBB2789839A83AB83BC83298158
:1013D0008D819E81FC0120838D819E8101978D836B
:1013E0009E8389819A81AB81BC81892F9A2FAB2FF3
:1013F000BB2789839A83AB83BC8329818D819E819E
:10140000FC0120838D819E8101978D839E838D8138
:101410009E8121E3FC0120838D819E8101978D8334
:101420009E838D819E8120E8FC0120838D819E8199
:1014300001978D839E838D819E8127E8FC01208307
:101440008D819E8101978D839E838D819E81FC017C
:1014500010828D819E8101978D839E838D819E81D7
:10146000FC0110828D819E8101978D839E838D81E9
:101470009E8122E0FC0120838D819E8101978D83D6
:101480009E838D819E8123E0FC0120838D819E813E
:1014900001978D839E838D819E8124E0FC012083B2
:1014A0008D819E8101978D839E838D819E8125E014
:1014B000FC0120838D819E8101978D839E838D8188
:1014C0009E8126E0FC0120838D819E8101978D8382
:1014D0009E838D819E8127E0FC0120838D819E81EA
:1014E00001978D839E838D819E8128E0FC0120835E
:1014F0008D819E8101978D839E838D819E8129E0C0
:10150000FC0120838D819E8101978D839E838D8137
:101510009E8120E1FC0120838D819E8101978D8336
:101520009E838D819E8121E1FC0120838D819E819E
:1015300001978D839E838D819E8122E1FC01208312
:101540008D819E8101978D839E838D819E8123E174
:10155000FC0120838D819E8101978D839E838D81E7
:101560009E8124E1FC0120838D819E8101978D83E2
:101570009E838D819E8125E1FC0120838D819E814A
:1015800001978D839E838D819E8126E1FC012083BE
:101590008D819E8101978D839E838D819E8127E120
:1015A000FC0120838D819E8101978D839E838D8197
:1015B0009E8128E1FC0120838D819E8101978D838E
:1015C0009E838D819E8129E1FC0120838D819E81F6
:1015D00001978D839E838D819E8120E2FC01208373
:1015E0008D819E8101978D839E838D819E8121E2D5
:1015F000FC0120838D819E8101978D839E838D8147
:101600009E8122E2FC0120838D819E8101978D8342
:101610009E838D819E8123E2FC0120838D819E81AA
:1016200001978D839E8389859A85CC01A0E0B0E0E7
:1016300089839A83AB83BC8329818D819E81FC0140
:1016400020838D819E8101978D839E8389819A81DC
:10165000AB81BC81892F9A2FAB2FBB2789839A83BB
:10166000AB83BC8329818D819E81FC0120838D8188
:101670009E8101978D839E838D819E8126E2FC0150
:1016800020838D819E8101978D839E838D819E8194
:1016900027E2FC0120838D819E8101978D839E83AB
:1016A0008D819E8128E2FC0120838D819E8101979E
:1016B0008D839E838D819E8129E2FC0120838D8113
:1016C0009E8101978D839E838D819E8120E3FC0105
:1016D00020838D819E8101978D839E838D819E8144
:1016E0002A96CDBFDEBFDF91CF910895CF93DF93D0
:1016F000CDB7DEB70E94BD0CA091482CB091492C0B
:101700000D900DBE0D900EBEEF91DF91CF91BF9168
:10171000AF919F918F917F916F915F914F913F9189
:101720002F911F910F91FF90EF90DF90CF90BF907E
:10173000AF909F908F907F906F905F904F903F9071
:101740002F901F900F90FF91F093A200FF91FFBF89
:10175000FF91089581E0DF91CF910895FF93FFB746
:10176000FF93F091A200FF93F87FF093A2000F92F5
:101770001F9211242F923F924F925F926F927F920D
:101780008F929F92AF92BF92CF92DF92EF92FF9291
:101790000F931F932F933F934F935F936F937F9379
:1017A0008F939F93AF93BF93CF93DF93EF93A091CA
:1017B000482CB091492C0DB60D920EB60D920E9498
:1017C0003D16A091482CB091492C0D900DBE0D9066
:1017D0000EBEEF91DF91CF91BF91AF919F918F910D
:1017E0007F916F915F914F913F912F911F910F9139
:1017F000FF90EF90DF90CF90BF90AF909F908F9031
:101800007F906F905F904F903F902F901F900F9020
:10181000FF91F093A200FF91FFBFFF910895000098
:101820001F93CF93DF931F92CDB7DEB7898380914B
:10183000092D982F8981892B8093092D80EA90E0CA
:10184000FC018081813061F080EA90E0FC018081C0
:10185000823031F080EA90E0FC018081843079F4BC
:101860008091092D882359F00E948609182F109223
:10187000092D0E943D1680EA90E0FC0112830000D1
:101880000F90DF91CF911F9108951F93CF93DF9316
:10189000CDB7DEB70E948609182F0E942D1580EA69
:1018A00090E0FC0112830000DF91CF911F91089519
:1018B000FF93FFB7FF93F091A200FF93F87FF0939F
:1018C000A2000F921F9211242F923F924F925F928B
:1018D0006F927F928F929F92AF92BF92CF92DF9240
:1018E000EF92FF920F931F932F933F934F935F932A
:1018F0006F937F938F939F93AF93BF93CF93DF9318
:10190000EF93A091482CB091492C0DB60D920EB6D4
:101910000D920E94450C81E00E94100CA091482C71
:10192000B091492C0D900DBE0D900EBEEF91DF9140
:10193000CF91BF91AF919F918F917F916F915F9167
:101940004F913F912F911F910F91FF90EF90DF905A
:10195000CF90BF90AF909F908F907F906F905F904F
:101960004F903F902F901F900F90FF91F093A20007
:10197000FF91FFBFFF9118950000CF93DF9300D038
:101980001F92CDB7DEB780E09DE7A0E0B0E089838D
:101990009A83AB83BC8389819A81AB81BC81689433
:1019A00015F8B695A795979587951694D1F78983DD
:1019B0009A83AB83BC8389819A81AB81BC81019777
:1019C000A109B10989839A83AB83BC8380E098E045
:1019D00029813A81FC0126A337A365E080E098E0E5
:1019E0000E94FF0361E080E098E00E94370400005D
:1019F0002496CDBFDEBFDF91CF910895CF93DF93C3
:101A0000CDB7DEB72597CDBFDEBF8B839C836D83BB
:101A10008B819C8189839A83F091A200FF93F87F48
:101A2000F093A20089819A81FC01808191812981B2
:101A30003A81F901278D422F50E029813A81F9013D
:101A400020A1222F30E0429FB001439F700D529F92
:101A5000700D11249B01280F391F89819A81FC0187
:101A60002283338389819A81FC01168E89819A8130
:101A7000FC012081318189819A81FC012483358395
:101A800089819A81FC018081918129813A81F901C2
:101A9000278D222F30E0A9014150510929813A8137
:101AA000F90120A1222F30E0429FB001439F700D29
:101AB000529F700D11249B01280F391F89819A8133
:101AC000FC012683378389819A812FEFFC0121A3B2
:101AD00089819A812FEFFC0122A38D81882381F4D3
:101AE00089819A81FC0180858823A1F089819A816E
:101AF00008960E94A817882369F00E94AE0B0AC0BE
:101B000089819A8108960E94170889819A81439653
:101B10000E941708FF91F093A20081E02596CDBFA7
:101B2000DEBFDF91CF9108950F931F93CF93DF9383
:101B3000CDB7DEB72997CDBFDEBF8F8368874987D2
:101B40008885882319F419821A820FC08F81482F43
:101B500050E08885282F30E0429FC001439F900DC0
:101B6000529F900D112489839A8389819A81859649
:101B70000E94C5078B839C838B819C81892B81F07C
:101B80008B819C8185968D839E832B813C818D8169
:101B90009E8189012985AC0168858F810E94DA0DBB
:101BA0008B819C812996CDBFDEBFDF91CF911F91A4
:101BB0000F9108950F931F93CF93DF93CDB7DEB7A7
:101BC0002797CDBFDEBF89836A834B835C832D83D8
:101BD0000E831F838A81882341F48E819F812E8109
:101BE0003F81FC012083318307C08E819F812B813F
:101BF0003C81FC01208331838E819F812981FC01FE
:101C0000278F8E819F812A81FC0120A38E819F8155
:101C100061E00E94FE0C8E819F812D81FC0124A336
:101C200000002796CDBFDEBFDF91CF911F910F91AE
:101C300008950F93CF93DF93CDB7DEB76297CDBFF3
:101C4000DEBF8A879B876C877D872E873F87488B7F
:101C5000598B0A8B19828A859B858A839B83F09195
:101C6000A200FF93F87FF093A2008A819B81FC0180
:101C7000268D8A819B81FC01878D281718F08A891F
:101C8000823019F52C853D858A819B814A89B9016D
:101C90000E9417108C838A819B81FC018389882391
:101CA00051F08A819B8143960E94A817882341F0B6
:101CB0000E94AE0B05C08C81882311F00E94AE0BF0
:101CC000FF91F093A20081E06FC08E859F85A88967
:101CD000B989892B8A2B8B2B29F4FF91F093A200D1
:101CE00080E062C08981882331F4CE0105960E948C
:101CF000731881E08983FF91F093A2000E9462141F
:101D0000F091A200FF93F87FF093A2008A819B815B
:101D1000FC0181A18F3F21F48A819B81FC0111A2EA
:101D20008A819B81FC0182A18F3F21F48A819B8162
:101D3000FC0112A2FF91F093A2009E01225F3F4F8F
:101D4000CE010596B9010E949618882331F58A8143
:101D50009B810E94A2118823C9F08E859F85A88946
:101D6000B9892A813B81285F3F4FAC01BD01C90180
:101D70000E940D178A819B810E941C110E946F1482
:101D8000882309F06CCF0E94AE0B69CF8A819B81BA
:101D90000E941C110E946F1462CF8A819B810E9455
:101DA0001C110E946F1480E06296CDBFDEBFDF91F0
:101DB000CF910F910895CF93DF93CDB7DEB72C97D6
:101DC000CDBFDEBF8E839F83688779874A875B8715
:101DD0002C878E819F818A839B830E9486098C83B6
:101DE0008A819B81FC01268D8A819B81FC01878DE4
:101DF000281718F08C85823089F58A819B81FC0137
:101E000082A18D83288539858A819B814C85B90182
:101E10000E9417108D818F3FB9F48A819B81FC014C
:101E200083898823C1F08A819B8143960E94A817E9
:101E3000882389F08A859B85892B69F08A859B8513
:101E400021E0FC01208307C08D818F5F282F8A81CC
:101E50009B81FC0122A381E0898301C0198280EA71
:101E600090E02C81FC01228389812C96CDBFDEBFBE
:101E7000DF91CF910895CF93DF93CDB7DEB7619710
:101E8000CDBFDEBF8A879B876C877D872E873F8784
:101E9000488B598B19828A859B858A839B83F09115
:101EA000A200FF93F87FF093A2008A819B81FC013E
:101EB000868D8C838C81882311F12C853D858A81C8
:101EC0009B81B9010E94CC108C812FEF280F8A8151
:101ED0009B81FC01268F8A819B81FC018085882360
:101EE00049F08A819B8108960E94A817882311F0E7
:101EF0000E94AE0BFF91F093A20081E076C08E8528
:101F00009F85A889B989892B8A2B8B2B29F4FF916E
:101F1000F093A20080E069C08981882331F4CE016A
:101F200005960E94731881E08983FF91F093A200C7
:101F30000E946214F091A200FF93F87FF093A20038
:101F40008A819B81FC0181A18F3F21F48A819B8141
:101F5000FC0111A28A819B81FC0182A18F3F21F4A7
:101F60008A819B81FC0112A2FF91F093A2009E0145
:101F7000225F3F4FCE010596B9010E949618882333
:101F800031F58A819B810E9481118823C9F08E8559
:101F90009F85A889B9892A813B812D5E3F4FAC017D
:101FA000BD01C9010E940D178A819B810E941C11ED
:101FB0000E946F14882309F072CF0E94AE0B6FCF7E
:101FC0008A819B810E941C110E946F1468CF8A81B4
:101FD0009B810E941C110E946F148A819B810E9428
:101FE0008111882309F45BCF80E06196CDBFDEBF0D
:101FF000DF91CF910895CF93DF9300D0CDB7DEB7B7
:102000008A839B83F091A200FF93F87FF093A20054
:102010008A819B81FC01868D8983FF91F093A200C8
:1020200089812396CDBFDEBFDF91CF910895CF93F5
:10203000DF93CDB7DEB72797CDBFDEBF8B839C8301
:102040006D837E834F831A828B819C81FC01868DF8
:1020500089838B819C81FC0180A1882309F48EC037
:102060008F818823D9F58B819C81FC0180A1482F29
:1020700050E08B819C81FC01848195812D813E8182
:10208000B9010E947C398B819C81FC0124813581BE
:102090008B819C81FC0180A1882F90E0280F391F43
:1020A0008B819C81FC01248335838B819C81FC0185
:1020B000248135818B819C81FC0182819381281749
:1020C000390708F45BC08B819C81FC012081318140
:1020D0008B819C81FC012483358350C08B819C8142
:1020E000FC0180A1482F50E08B819C81FC018681FE
:1020F00097812D813E81B9010E947C398B819C8121
:10210000FC01268137818B819C81FC0180A1882F75
:1021100090E0919581959109280F391F8B819C81C1
:10212000FC01268337838B819C81FC0126813781CA
:102130008B819C81FC018081918128173907A8F44B
:102140008B819C81FC01228133818B819C81FC01EC
:1021500080A1882F90E0919581959109280F391FD2
:102160008B819C81FC01268337838F81823031F4FF
:102170008981882319F0898181508983898121E0AF
:10218000280F8B819C81FC01268F8A812796CDBFE9
:10219000DEBFDF91CF910895CF93DF9300D01F92E0
:1021A000CDB7DEB789839A836B837C8389819A81DB
:1021B000FC0180A18823C9F189819A81FC012681D3
:1021C000378189819A81FC0180A1882F90E0280FB6
:1021D000391F89819A81FC012683378389819A81FD
:1021E000FC012681378189819A81FC01828193815A
:1021F0002817390750F089819A81FC0120813181AB
:1022000089819A81FC012683378389819A81FC0127
:1022100080A1482F50E089819A81FC012681378175
:102220008B819C81B9010E947C3900002496CDBF2E
:10223000DEBFDF91CF910895CF93DF9300D01F923F
:10224000CDB7DEB78B839C83F091A200FF93F87F1C
:10225000F093A2008B819C81FC0182A1898312C032
:102260008B819C81FC018389882381F08B819C81F7
:1022700043960E94A817882311F00E943E19898175
:1022800081508983898118165CF301C000008B811D
:102290009C812FEFFC0122A3FF91F093A200F0910B
:1022A000A200FF93F87FF093A2008B819C81FC0138
:1022B00081A18A8312C08B819C81FC018085882347
:1022C00081F08B819C8108960E94A817882311F0C9
:1022D0000E943E198A8181508A838A8118165CF394
:1022E00001C000008B819C812FEFFC0121A3FF9195
:1022F000F093A20000002496CDBFDEBFDF91CF9106
:102300000895CF93DF9300D0CDB7DEB78A839B8348
:10231000F091A200FF93F87FF093A2008A819B8145
:10232000FC01868D882319F481E0898301C019821C
:10233000FF91F093A20089812396CDBFDEBFDF918C
:10234000CF910895CF93DF9300D0CDB7DEB78A83C6
:102350009B83F091A200FF93F87FF093A2008A8103
:102360009B81FC01268D8A819B81FC01878D28172A
:1023700019F481E0898301C01982FF91F093A200D2
:1023800089812396CDBFDEBFDF91CF910895CF9392
:10239000DF93CDB7DEB72997CDBFDEBF8B839C839C
:1023A0004D835E836F83788729878B819C818983A6
:1023B0009A83F091A200FF93F87FF093A2008981A5
:1023C0009A81FC0181A18F3F21F489819A81FC01CE
:1023D00011A289819A81FC0182A18F3F21F4898118
:1023E0009A81FC0112A2FF91F093A20089819A8147
:1023F000FC01868D882371F489819A81FC01739692
:102400008D819E81AF81B8852985AC01BD01CF0149
:102410000E94741789819A810E941C1100002996DC
:10242000CDBFDEBFDF91CF9108958F929F92AF9283
:10243000BF92CF92DF92EF92FF920F931F93CF93B1
:10244000DF93CDB7DEB76097CDBFDEBF8E839F83AE
:10245000688779874A875B872C873D870E87EF8659
:10246000F88A8A859B850E94C5078C839D838C8111
:102470009D81892BB9F08CE290E00E94C507898389
:102480009A8389819A81892B41F089819A812C8153
:102490003D81FC01238F348F07C08C819D810E9478
:1024A000090802C019821A8289819A81892B09F14F
:1024B0008A859B85CC01A0E0B0E009811A814F8517
:1024C00058892C853D8568857985EE81FF81812C31
:1024D000912C58016A01EE8489019C01AD01CF0164
:1024E0000E948C1289819A810E94621381E08B8301
:1024F00002C08FEF8B838B816096CDBFDEBFDF91F3
:10250000CF911F910F91FF90EF90DF90CF90BF90F0
:10251000AF909F908F9008958F929F92AF92BF92AD
:10252000CF92DF92EF92FF920F931F93CF93DF939F
:10253000CDB7DEB76497CDBFDEBF8C839D836E833E
:102540007F83288739874A875B870C871D87EE86BC
:10255000CF86D88AA98ABA8A8B8A9C8A28853985A7
:1025600089899A89FC01838D948DA90165EA70E0BF
:102570000E94853989899A89FC01238D348D88854B
:1025800099850197820F931F8A839B83198221C0AB
:102590008981882F90E02981222F30E04E815F8150
:1025A000240F351FF901408129893A89820F931F31
:1025B0004D96FC0140838981882F90E02E813F81D8
:1025C000820F931FFC018081882339F089818F5FFE
:1025D000898389818830E0F201C0000089899A8965
:1025E000FC0114A28E85843010F083E08E878989E7
:1025F0009A892E85FC01228F89899A8902960E94E8
:10260000510889899A890E960E94510889899A8968
:1026100029893A89FC01228733878E85882F90E0AB
:10262000A0E0B0E024E030E040E050E079018A0131
:10263000E81AF90A0A0B1B0BD801C70129893A8944
:10264000F90186879787A08BB18B89899A89298917
:102650003A89FC01268B378B89899A89FC0117A25C
:1026600010A611A612A689899A89FC0113A64C8589
:102670005D852C813D818A819B81B9010E949D09E4
:102680009C0189899A89FC01208331838F859889EF
:10269000892B39F08F85988929893A89FC01208313
:1026A000318300006496CDBFDEBFDF91CF911F91D3
:1026B0000F91FF90EF90DF90CF90BF90AF909F90E1
:1026C0008F900895CF93DF931F921F92CDB7DEB7FF
:1026D00089839A83F091A200FF93F87FF093A20080
:1026E0008091A62C8F5F8093A62C8091482C90918E
:1026F000492C892B69F489819A818093482C909385
:10270000492C8091A62C8130C9F40E945C1916C016
:102710008091AC2C882391F48091482C9091492C85
:10272000FC01228D89819A81FC01828D821730F013
:1027300089819A818093482C9093492C8091B02C68
:102740008F5F8093B02C2091B02C89819A81FC01FD
:1027500025A389819A81FC01928D8091AB2C8917E8
:1027600030F489819A81FC01828D8093AB2C898120
:102770009A81AC014E5F5F4F89819A81FC01828D05
:10278000282F30E06BE0629FC001639F900D112401
:10279000865B934DBA010E946408FF91F093A200FA
:1027A0008091AC2C882371F08091482C9091492C19
:1027B000FC01228D89819A81FC01828D281710F4F9
:1027C0000E94AE0B00000F900F90DF91CF91089503
:1027D000CF93DF93CDB7DEB72597CDBFDEBF6A833A
:1027E0007B838C839D8319828A819B81AC81BD818F
:1027F000892B8A2B8B2B71F00E9462148A819B811A
:10280000AC81BD8140E0BC01CD010E94391A0E941B
:102810006F1489838981882311F40E94AE0B000014
:102820002596CDBFDEBFDF91CF910895EF92FF9245
:102830000F93CF93DF931F92CDB7DEB70F2EF5EB3B
:10284000EF2EFCE2FF2EF02D00E020E030E048EC1F
:1028500050E060E070E289E499E10E9415128983FA
:102860008981813019F40E94DA1A89838981813043
:1028700009F580EA90E020EA30E0F9012281287F22
:10288000FC0122838FEF9FEFDC018093B12C9093AA
:10289000B22CA093B32CB093B42C81E08093AC2CD9
:1028A0001092A72C1092A82C1092A92C1092AA2C4E
:1028B0000E94760B00000F90DF91CF910F91FF9057
:1028C000EF900895CF93DF93CDB7DEB78091B72C0B
:1028D0008F5F8093B72C0000DF91CF910895CF9345
:1028E000DF9300D01F92CDB7DEB719821A821B8208
:1028F000F091A200FF93F87FF093A2008091B72C93
:1029000081508093B72C8091B72C882309F074C034
:102910008091A62C882309F46FC046C08091972C23
:102920009091982CFC018085918589839A83898177
:102930009A810E960E94300989819A8102960E949E
:10294000300989819A81FC01928D8091AB2C891785
:1029500030F489819A81FC01828D8093AB2C89812E
:102960009A81AC014E5F5F4F89819A81FC01828D13
:10297000282F30E06BE0629FC001639F900D11240F
:10298000865B934DBA010E94640889819A81FC019B
:10299000228D8091482C9091492CFC01828D281722
:1029A00018F081E08093AE2C8091902C882309F060
:1029B000B5CF89819A81892B11F00E949F1980914E
:1029C000AD2C8C838C81882379F00E942D1588236F
:1029D00019F081E08093AE2C8C8181508C838C81A6
:1029E000882399F71092AD2C8091AE2C882321F08A
:1029F00081E08B830E94AE0BFF91F093A2008B814C
:102A00002496CDBFDEBFDF91CF910895CF93DF93A2
:102A100000D01F92CDB7DEB7F091A200FF93F87FF0
:102A2000F093A2008091A72C9091A82CA091A92CA2
:102A3000B091AA2C89839A83AB83BC83FF91F093D6
:102A4000A20089819A81AB81BC81BC01CD01249611
:102A5000CDBFDEBFDF91CF910895CF93DF93CDB788
:102A6000DEB72D97CDBFDEBF19828091B72C8823AA
:102A700009F0F1C08091A72C9091A82CA091A92CCD
:102A8000B091AA2C0196A11DB11D8A839B83AC83B2
:102A9000BD838A819B81AC81BD818093A72C90935B
:102AA000A82CA093A92CB093AA2C8A819B81AC81DD
:102AB000BD81892B8A2B8B2BD9F480918C2C909102
:102AC0008D2C8E839F8380918E2C90918F2C809360
:102AD0008C2C90938D2C8E819F8180938E2C909343
:102AE0008F2C8091AF2C8F5F8093AF2C0E949F1909
:102AF0008091B12C9091B22CA091B32CB091B42CB8
:102B00002A813B814C815D81281739074A075B0781
:102B100008F48AC080918C2C90918D2CFC018081CE
:102B2000882361F48FEF9FEFDC018093B12C9093A9
:102B3000B22CA093B32CB093B42C76C080918C2C83
:102B400090918D2CFC0187819085FC018085918579
:102B50008887998788859985FC0182819381A481E2
:102B6000B5818A879B87AC87BD872A813B814C8151
:102B70005D818A859B85AC85BD85281739074A0705
:102B80005B0768F48A859B85AC85BD858093B12CF5
:102B90009093B22CA093B32CB093B42C45C08885ED
:102BA000998502960E94300988859985FC01808D5F
:102BB000918D892B29F0888599850E960E94300980
:102BC00088859985FC01928D8091AB2C891730F412
:102BD00088859985FC01828D8093AB2C88859985A9
:102BE000AC014E5F5F4F88859985FC01828D282F4F
:102BF00030E06BE0629FC001639F900D1124865B03
:102C0000934DBA010E94640888859985FC01228D44
:102C10008091482C9091492CFC01828D281708F452
:102C200079CF81E0898376CF8091482C9091492C8F
:102C3000FC01828D282F30E04BE0429FC001439F72
:102C4000900D1124865B934DFC018081823040F011
:102C500081E0898305C08091AD2C8F5F8093AD2C7E
:102C60008091AE2C882311F081E0898389812D9693
:102C7000CDBFDEBFDF91CF910895CF93DF93CDB766
:102C8000DEB72997CDBFDEBF8091B72C882321F016
:102C900081E08093AE2CBAC01092AE2C8091482C6B
:102CA0009091492CFC01838D948D8A839B8385EAC6
:102CB00095EADC018C839D83AE83BF838A819B81EF
:102CC000FC0120813181428153818C819D81AE81C3
:102CD000BF81281739074A075B0799F58A819B81CD
:102CE0000496FC0120813181428153818C819D8138
:102CF000AE81BF81281739074A075B0711F58A8122
:102D00009B810896FC0120813181428153818C8115
:102D10009D81AE81BF81281739074A075B0789F477
:102D20008A819B810C96FC012081318142815381F3
:102D30008C819D81AE81BF81281739074A075B07C7
:102D400071F08091482C9091492C9C01235E3F4F5B
:102D50008091482C9091492CB9010E945304809194
:102D6000AB2C898303C08981815089838981282F75
:102D700030E04BE0429FC001439F900D1124865BE1
:102D8000934DFC018081882371F38981282F30E0E5
:102D90004BE0429FC001439F900D1124865B934DF1
:102DA0008887998788859985FC0181819281FC01BA
:102DB0002481358188859985FC012183328388852A
:102DC0009985FC0121813281888599850396281790
:102DD000390769F488859985FC0181819281FC011C
:102DE0002481358188859985FC01218332838885FA
:102DF0009985FC0181819281FC0180859185809378
:102E0000482C9093492C89818093AB2C0000299603
:102E1000CDBFDEBFDF91CF910895CF93DF9300D078
:102E200000D0CDB7DEB789839A834B835C836D83F3
:102E30007E838091482C9091492C9C01225F3F4FCA
:102E400089819A81B9010E94AF088B819C81AD81F3
:102E5000BE8141E0BC01CD010E94391A00002696D6
:102E6000CDBFDEBFDF91CF9108950F931F93CF9316
:102E7000DF93CDB7DEB72A97CDBFDEBF89839A83B4
:102E80004B835C836D837E830F83188729873A8702
:102E90002091482C3091492C8B819C81AD81BE8141
:102EA000B068F90186879787A08BB18B8091482CF9
:102EB0009091492C9C01225F3F4F89819A81B901F1
:102EC0000E9464088F819885A985BA8541E0BC017C
:102ED000CD010E94391A00002A96CDBFDEBFDF91D6
:102EE000CF911F910F910895CF93DF93CDB7DEB7A8
:102EF0002797CDBFDEBF89839A834B835C836D8325
:102F00007E832F838091482C9091492C9C01225FD5
:102F10003F4F89819A81B9010E9464088F8188237B
:102F200039F08FEF9FEFDC018B839C83AD83BE83F1
:102F30008B819C81AD81BE814F81BC01CD010E94FE
:102F4000391A00002796CDBFDEBFDF91CF910895DB
:102F5000CF93DF93CDB7DEB72597CDBFDEBF8C8390
:102F60009D838C819D81FC0187819085FC018085FA
:102F700091858A839B838A819B810E960E9430096A
:102F80008091B72C882351F58A819B8102960E94FB
:102F900030098A819B81FC01928D8091AB2C89172D
:102FA00030F48A819B81FC01828D8093AB2C8A81D5
:102FB0009B81AC014E5F5F4F8A819B81FC01828DBA
:102FC000282F30E06BE0629FC001639F900D1124B9
:102FD000865B934DBA010E94640808C08A819B8178
:102FE0000E96BC0180E99CE20E9464088A819B8164
:102FF000FC01228D8091482C9091492CFC01828DFE
:10300000821730F481E0898381E08093AE2C01C087
:10301000198289812596CDBFDEBFDF91CF910895BA
:10302000CF93DF93CDB7DEB72897CDBFDEBF8B83BD
:103030009C834D835E836F8378878D819E81AF8172
:10304000B885B0682B813C81F90180839183A2838C
:10305000B3838B819C81FC018085918589839A83D0
:103060008B819C810E94300989819A8102960E94FD
:10307000300989819A81FC01928D8091AB2C89174E
:1030800030F489819A81FC01828D8093AB2C8981F7
:103090009A81AC014E5F5F4F89819A81FC01828DDC
:1030A000282F30E06BE0629FC001639F900D1124D8
:1030B000865B934DBA010E94640889819A81FC0164
:1030C000228D8091482C9091492CFC01828D821791
:1030D00018F481E08093AE2C00002896CDBFDEBFAF
:1030E000DF91CF910895CF93DF931F921F92CDB7B9
:1030F000DEB789839A832091AF2C89819A81FC0164
:1031000020838091A72C9091A82CA091A92CB091FC
:10311000AA2C29813A81F90181839283A383B48304
:1031200000000F900F90DF91CF910895EF92FF92E2
:103130000F931F93CF93DF93CDB7DEB72D97CDBFFE
:10314000DEBF8A879B876C877D87F091A200FF9303
:10315000F87FF093A2008091A72C9091A82CA091C9
:10316000A92CB091AA2C8A839B83AC83BD838A85CA
:103170009B85FC0181819281A381B4812A813B815D
:103180004C815D8179018A01E81AF90A0A0B1B0B4F
:10319000D801C7018E839F83A887B9878C859D85B9
:1031A000FC0180819181A281B3818F3F9F4FAF4FFE
:1031B000BF4F11F4198254C08A859B85FC01908110
:1031C0008091AF2C981799F08A859B85FC0121810D
:1031D0003281438154818A819B81AC81BD81821778
:1031E0009307A407B50718F081E0898339C08C855F
:1031F0009D85FC0120813181428153818E819F8197
:10320000A885B98582179307A407B50700F58C85B3
:103210009D85FC0120813181428153818E819F8176
:10322000A885B98579018A01E81AF90A0A0B1B0BEE
:10323000D801C7012C853D85F90180839183A28344
:10324000B3838A859B850E947318198209C08C8577
:103250009D85FC01108211821282138281E0898394
:10326000FF91F093A20089812D96CDBFDEBFDF9143
:10327000CF911F910F91FF90EF900895CF93DF931F
:10328000CDB7DEB781E08093AE2C0000DF91CF9107
:103290000895CF93DF931F921F92CDB7DEB7898336
:1032A0009A830E94971980914A2C823010F00E94D4
:1032B000AE0B0E943820F5CFCF93DF931F92CDB78E
:1032C000DEB7198210C08981282F30E04BE0429F81
:1032D000C001439F900D1124865B934D0E941708F7
:1032E00089818F5F89838981843068F386E79CE2D6
:1032F0000E94170881E89CE20E94170880E99CE27E
:103300000E9417088BE99CE20E94170886E79CE25E
:1033100080938C2C90938D2C81E89CE280938E2C52
:1033200090938F2C00000F90DF91CF910895CF9351
:10333000DF93CDB7DEB70000DF91CF910895CF9333
:10334000DF931F921F92CDB7DEB780918C2C9091A6
:103350008D2CFC018081882361F48FEF9FEFDC01CD
:103360008093B12C9093B22CA093B32CB093B42C37
:103370001BC080918C2C90918D2CFC0187819085B5
:10338000FC018085918589839A8389819A81FC01DA
:1033900082819381A481B5818093B12C9093B22CCA
:1033A000A093B32CB093B42C00000F900F90DF913A
:1033B000CF910895CF93DF931F92CDB7DEB7809161
:1033C000AC2C882319F481E0898308C08091B72C44
:1033D000882319F482E0898301C0198289810F90C2
:1033E000DF91CF910895EF92FF920F931F93CF93A8
:1033F000DF9300D01F92CDB7DEB78091482C90911B
:10340000492CFC0186859785A089B18989839A8397
:10341000AB83BC836091482C7091492C8091482CDF
:103420009091492CFC01828D882F90E0A0E0B0E0C3
:1034300024E030E040E050E079018A01E81AF90A1E
:103440000A0B1B0BD801C701FB0186879787A08B4E
:10345000B18B89819A81AB81BC81BC01CD0124965D
:10346000CDBFDEBFDF91CF911F910F91FF90EF9005
:103470000895CF93DF93CDB7DEB72D97CDBFDEBFD5
:1034800069877A878B879C874D878091A72C90913D
:10349000A82CA091A92CB091AA2C89839A83AB83E4
:1034A000BC838091482C9091492C02960E9430094F
:1034B00089859A85AB85BC858F3F9F4FAF4FBF4FA6
:1034C00071F48D85882359F08091482C9091492C76
:1034D0000296BC018BE99CE20E94640864C02981C9
:1034E0003A814B815C8189859A85AB85BC85820F49
:1034F000931FA41FB51F8D839E83AF83B887209130
:10350000482C3091492C8D819E81AF81B885F9017D
:1035100082839383A483B5832D813E814F81588517
:1035200089819A81AB81BC81281739074A075B07DB
:1035300078F48091482C9091492C9C012E5F3F4F4C
:1035400080918E2C90918F2CB9010E94AF082BC0D6
:103550008091482C9091492C9C012E5F3F4F809187
:103560008C2C90918D2CB9010E94AF088091B12CC8
:103570009091B22CA091B32CB091B42C2D813E81AE
:103580004F815885281739074A075B0760F48D81FA
:103590009E81AF81B8858093B12C9093B22CA0937B
:1035A000B32CB093B42C00002D96CDBFDEBFDF91BD
:1035B000CF910895EF92FF920F93CF93DF931F92D5
:1035C000CDB7DEB719820E946B1F8091D22C9091EB
:1035D000D32C892B91F00F2EF4EDEF2EFCE2FF2E71
:1035E000F02D03E020E030E04CE251E065E070E2D5
:1035F00080EF9BE10E941512898389810F90DF91F2
:10360000CF910F91FF90EF900895CF92DF92EF92BC
:10361000FF920F931F93CF93DF93CDB7DEB76797DA
:10362000CDBFDEBF8B879C876D872E873F87488BFA
:10363000598B0A8B1B8BCC8ADD8AEE8AFF8A198212
:103640008091D22C9091D32C892B09F444C08D8584
:103650008A838E859F85A889B9898B839C83AD8356
:10366000BE838B859C858F8398878D85863034F5C6
:103670000E94DA19823099F4E091D22CF091D32C87
:103680008C899D89AE89BF89BE016E5F7F4F00E046
:103690009C01AD01CF010E94190E89831CC080914D
:1036A000D22C9091D32CBE016E5F7F4F00E020E0C2
:1036B00030E0A9010E94190E89830DC08091D22C9F
:1036C0009091D32C4A895B89BE016E5F7F4F20E0C9
:1036D0000E94DB0E898389816796CDBFDEBFDF91B3
:1036E000CF911F910F91FF90EF90DF90CF900895B1
:1036F000CF92DF92EF92FF920F931F93CF93DF93BE
:10370000CDB7DEB72B97CDBFDEBF6C837D838E83B5
:103710009F83288739874A875B878091CE2C909139
:10372000CF2CFC0187819085FC0180859185898360
:103730009A8389819A8102960E94300989819A81AF
:10374000FC0182898130B1F589819A81FC0126854D
:103750003785408951898C819D81AE81BF81820FDF
:10376000931FA41FB51FEC80FD800E811F8128854B
:1037700039854A855B85E981FA816701780189018C
:103780009A01AC01BD01CF010E940E1D882391F06A
:103790008C819D81AE81BF81E981FA81C12CD12CC0
:1037A000760100E010E09C01AD0160E0CF010E94D5
:1037B000051B8B8389819A81FC0125893689898142
:1037C0009A81F901199500002B96CDBFDEBFDF91DC
:1037D000CF911F910F91FF90EF90DF90CF900895C0
:1037E000CF93DF93CDB7DEB72797CDBFDEBF8E83F4
:1037F0009F83CE0105960E948B1CDC01CB0189833F
:103800009A83AB83BC832D8189819A81AB81BC81F2
:10381000422FBC01CD010E94101C0E94A71DE9CFC0
:10382000EF92FF920F931F93CF93DF93CDB7DEB745
:103830002A97CDBFDEBF6E837F83888799874A87AB
:103840000E946214CE0105960E94C91CDC01CB01C6
:1038500089839A83AB83BC838D81882309F04EC012
:103860008A858823E1F42E813F81488559858981A5
:103870009A81AB81BC8182179307A407B50778F0C2
:103880000E946F1429813A814B815C818E819F81D6
:10389000A885B985BC01CD010E94781B31C08A85FD
:1038A000882359F08091D02C9091D12CFC019081EB
:1038B00081E0992309F080E08A872E813F81488545
:1038C000598589819A81AB81BC8179018A01E81A85
:1038D000F90A0A0B1B0BD801C701E091D22CF09119
:1038E000D32C2A85AC01BD01CF010E94C7110E94D3
:1038F0006F14882329F40E94AE0B02C00E946F143B
:1039000000002A96CDBFDEBFDF91CF911F910F91AE
:10391000FF90EF900895CF93DF9300D000D0CDB704
:10392000DEB78D839E838091CE2C9091CF2CFC01AD
:10393000908181E0992309F080E0282F8D819E817C
:10394000FC0120838D819E81FC018081882389F484
:103950008091CE2C9091CF2CFC0187819085FC0129
:1039600080819181A281B38189839A83AB83BC8357
:1039700004C019821A821B821C8289819A81AB81C0
:10398000BC81BC01CD012696CDBFDEBFDF91CF91BA
:103990000895CF93DF9300D000D0CDB7DEB78D83ED
:1039A0009E830E940615DC01CB0189839A83AB8339
:1039B000BC838091D62C9091D72CA091D82CB0911B
:1039C000D92C29813A814B815C81281739074A0714
:1039D0005B0740F40E94B11E8D819E8121E0FC01B5
:1039E000208304C08D819E81FC01108289819A818F
:1039F000AB81BC818093D62C9093D72CA093D82CEC
:103A0000B093D92C89819A81AB81BC81BC01CD0155
:103A10002696CDBFDEBFDF91CF910895CF92DF9282
:103A2000EF92FF920F931F93CF93DF93CDB7DEB743
:103A30002F97CDBFDEBF8A839B834C835D836E83CC
:103A40007F83088719872A873B87CC86DD86EE86A9
:103A5000FF8619822A813B818C819D81AE81BF8145
:103A6000F90182839383A483B5838A819B812A8110
:103A70003B81FC01228733872C813D814E815F8110
:103A800088859985AA85BB8582179307A407B50702
:103A900040F1288539854A855B858C859D85AE8575
:103AA000BF85281B390B4A0B5B0B8A819B81FC016C
:103AB00086859785A089B189281739074A075B074A
:103AC00018F081E0898336C08A819B819C012E5F3A
:103AD0003F4F8091D02C9091D12CB9010E94AF081A
:103AE00029C0288539854A855B858C859D85AE856D
:103AF000BF85281739074A075B0780F42C813D8171
:103B00004E815F818C859D85AE85BF8528173907DD
:103B10004A075B0718F081E089830CC08A819B818A
:103B20009C012E5F3F4F8091CE2C9091CF2CB901FC
:103B30000E94AF0889812F96CDBFDEBFDF91CF9164
:103B40001F910F91FF90EF90DF90CF900895CF924B
:103B5000DF92EF92FF920F931F93CF93DF93CDB736
:103B6000DEB76597CDBFDEBFE0C08A858823FCF451
:103B7000CE010A96019689839A8389819A81FC01F4
:103B80002081318189819A81FC0184819581A6817E
:103B9000B78149815A81FA010280F381E02DEC8BD3
:103BA000FD8BAC01BD018C899D89F90119958A8530
:103BB00088230CF4BAC08F8598898B839C838B8172
:103BC0009C81FC0184859585892B29F08B819C81C2
:103BD00002960E943009CE0143960E94C91CDC0166
:103BE000CB018D839E83AF83B8878A85082E000C16
:103BF000990B092E000CAA0BBB0B40E050E029E00A
:103C000030E0841B950B2817390708F48DC0FC01A0
:103C10008827E250FF4F8F4F0C949138EB84FC843F
:103C20000D851E852B853C854D855E858B819C8110
:103C3000FC0186859785A089B189820F931FA41FF7
:103C4000B51F2D813E814F815885EB81FC81670135
:103C5000780189019A01AC01BD01CF010E940E1DBE
:103C6000882309F462C08B819C81FC0125893689F7
:103C70008B819C81F90119958B819C81FC01828942
:103C8000813009F052C02B853C854D855E858B8146
:103C90009C81FC0186859785A089B189820F931F3D
:103CA000A41FB51FEB81FC81C12CD12C760100E053
:103CB00010E09C01AD0160E0CF010E94051B8987E7
:103CC00034C08B859C85AD85BE852B813C81F901F7
:103CD00086879787A08BB18B8B819C81FC01268581
:103CE0003785408951898D819E81AF81B885820F4A
:103CF000931FA41FB51FED80FE800F8118852D81B5
:103D00003E814F815885EB81FC81670178018901F3
:103D10009A01AC01BD01CF010E940E1D06C08B812E
:103D20009C810E94090801C000008091D22C9091D2
:103D3000D32CBE01665F7F4F20E030E0A9010E94D6
:103D40003B0F882309F011CF00006596CDBFDEBF81
:103D5000DF91CF911F910F91FF90EF90DF90CF9067
:103D60000895CF92DF92EF92FF920F931F93CF931C
:103D7000DF93CDB7DEB72D97CDBFDEBF82C0809178
:103D8000CE2C9091CF2CFC0187819085FC01808105
:103D90009181A281B38189839A83AB83BC83809113
:103DA000CE2C9091CF2CFC0187819085FC018085E1
:103DB00091858D839E838D819E8102960E9430091C
:103DC0008D819E81FC01258936898D819E81F90135
:103DD00019958D819E81FC018289813009F051C045
:103DE0008D819E81FC012685378540895189898195
:103DF0009A81AB81BC81820F931FA41FB51F8F8353
:103E00009887A987BA872F81388549855A858981FE
:103E10009A81AB81BC8182179307A407B507F8F498
:103E20002D813E818F819885A985BA85F90182838C
:103E30009383A483B5838D819E812D813E81FC0176
:103E4000228733878D819E819C012E5F3F4F809119
:103E5000CE2C9091CF2CB9010E94AF0812C089815D
:103E60009A81AB81BC81ED81FE81C12CD12C760180
:103E700000E010E09C01AD0160E0CF010E94051B55
:103E80008B878091CE2C9091CF2CFC018081882350
:103E900009F075CF8091CE2C9091CF2C8C879D8787
:103EA0008091D02C9091D12C8093CE2C9093CF2CBC
:103EB0008C859D858093D02C9093D12C00002D96DD
:103EC000CDBFDEBFDF91CF911F910F91FF90EF909B
:103ED000DF90CF900895CF93DF93CDB7DEB7F09109
:103EE000A200FF93F87FF093A2008091D22C9091D2
:103EF000D32C892BE9F488EB9CE20E94170883EC11
:103F00009CE20E94170888EB9CE28093CE2C909351
:103F1000CF2C83EC9CE28093D02C9093D12C40E06A
:103F200069E08AE00E94940D8093D22C9093D32C68
:103F3000FF91F093A2000000DF91CF9108950F93BD
:103F40001F93CF93DF93CDB7DEB76497CDBFDEBFAE
:103F50008B879C876D877E872F87388B498B5A8B01
:103F60000B8B1C8B8EEF8A838B859C858B839C832C
:103F70008D859E858D839E838F859889A989BA8931
:103F80008F839887A987BA878091D22C9091D32C60
:103F90004B895C89BE016E5F7F4F20E00E94DB0E83
:103FA000898389816496CDBFDEBFDF91CF911F9158
:103FB0000F910895CF93DF93CDB7DEB780E590E002
:103FC00020E530E0F90120812160FC01208380E5BB
:103FD00090E0FC018181882F90E081709927892BE6
:103FE000B1F380E00E94DD038EE10E94A60360E051
:103FF00080E00E94C60343E060E080E40E94710319
:1040000080E590E020E530E0F90120812860FC01A6
:10401000208380E590E0FC018181882F90E088700A
:104020009927892BB1F364E080EC0E948E0380E530
:1040300090E020E530E0F90120812061FC0120833F
:1040400060E080E00E94C60380E590E0FC01818191
:10405000882F90E080719927892BB1F384E00E942A
:10406000DD0387E00E94A6030000DF91CF91089551
:10407000CF93DF93CDB7DEB70000DF91CF910895E6
:10408000CF93DF93CDB7DEB780E099E025E0FC0168
:10409000208380E099E0FC01118280E099E023E038
:1040A000FC01268380E099E028E833E1FC0126A3A7
:1040B00037A30000DF91CF910895EF92FF920F9305
:1040C000CF93DF931F92CDB7DEB70E948E308983E6
:1040D0000E94DA1F0E94D8280E940E020E948804C3
:1040E0008093DA2C9093DB2CE12CF12C01E020E082
:1040F00030E04EE551E06DE070E284EF90E20E9426
:104100001512E12CF12C02E020E030E04EE551E008
:1041100069E170E288E291E20E941512E12CF12C33
:1041200001E020E030E04EE551E061E270E283E43E
:1041300094E20E941512E12CF12C01E020E030E025
:104140004EE551E069E270E284E995E20E941512C1
:104150000E94161480E090E00F90DF91CF910F91B4
:10416000FF90EF9008951F920F9200903F000F92E2
:10417000112400903B000F922F933F934F935F9336
:104180006F937F938F939F93AF93BF93EF93FF931F
:10419000CF93DF931F92CDB7DEB719828091DA2CCF
:1041A0009091DB2C9E012F5F3F4F41E050E060E09B
:1041B00070E00E949B0700000F90DF91CF91FF916C
:1041C000EF91BF91AF919F918F917F916F915F918F
:1041D0004F913F912F910F9000923B000F900092D2
:1041E0003F000F901F901895CF92DF92EF92FF92B1
:1041F0000F93CF93DF9300D01F92CDB7DEB78B83A1
:104200009C830E9440208091DA2C9091DB2CCC245E
:10421000CA94DC2C760101E021E041E050E060E04E
:1042200070E00E94AB0489818F5F89831A82898143
:10423000823329F481E080931A2D198202C01092F2
:104240001A2D61E070E080E090E00E94E813DBCF7F
:10425000CF92DF92EF92FF920F93CF93DF93CDB780
:10426000DEB72597CDBFDEBF8C839D83198206C044
:1042700061E070E080E090E00E94E8138091DA2C29
:104280009091DB2C892BA1F38091DA2C9091DB2C7F
:1042900040E050E0BA010E94E305DC01CB018A83D3
:1042A0009B830E942A0280E00E941C03813051F40B
:1042B0008091DA2C9091DB2C40E052E060E070E0DD
:1042C0000E942E0681E00E941C038130A1F480919F
:1042D000DA2C9091DB2C41E050E060E070E00E942D
:1042E0002E068091DA2C9091DB2C40E052E060E0C9
:1042F00070E00E94E30582E00E941C03813051F4CB
:104300008091DA2C9091DB2C40E250E060E070E08C
:104310000E942E0683E00E941C03813051F480919C
:10432000DA2C9091DB2C42E050E060E070E00E94DB
:104330002E068091DC2C882F90E08130910509F4C5
:1043400045C08230910509F46FC1892B09F094C2F0
:104350000E94232B8FE290E2892F8F938FE290E2CD
:104360008F931F921F921F921F920E94352B0F90C6
:104370000F900F900F900F900F908EE390E2892F87
:104380008F938EE390E28F931F921F921F9281E092
:104390008F930E94352B0F900F900F900F900F90DE
:1043A0000F908A819B8182709927892B09F45FC2C3
:1043B00081E08093DC2C8091DA2C9091DB2C42E020
:1043C00050E060E070E00E94E30551C28A819B8169
:1043D00088279270892B09F412C18091DA2C909170
:1043E000DB2C40E450E060E070E00E942E068091FB
:1043F000DA2C9091DB2C40E850E060E070E00E9405
:104400002E068091DA2C9091DB2CCC24CA94DC2CE3
:10441000760101E020E040E051E060E070E00E94C1
:10442000AB048091DA2C9091DB2C40E050E0BA0193
:104430000E94E305DC01CB0181709927AA27BB27E5
:10444000892B8A2B8B2B09F46DC00E94232B809122
:10445000162D9091172DA091182DB091192D2B2F5D
:104460002F932A2F2F93292F2F938F938BE490E252
:10447000892F8F938BE490E28F931F921F921F924C
:104480001F920E94352B8DB79EB70A96CDBFDEBF17
:1044900089E590E2892F8F9389E590E28F931F92AF
:1044A0001F921F9281E08F930E94352B0F900F90E7
:1044B0000F900F900F900F908091122D9091132DCF
:1044C000A091142DB091152D2B2F2F932A2F2F93C0
:1044D000292F2F938F9385E690E2892F8F9385E67E
:1044E00090E28F931F921F921F9282E08F930E94FF
:1044F000352B8DB79EB70A96CDBFDEBF8091DA2CE3
:104500009091DB2C40E051E060E070E00E94E30518
:104510008091DA2C9091DB2C40E850E060E070E074
:104520000E94E3058091DA2C9091DB2C40E050E072
:10453000BA010E94E305DC01CB0188709927AA2704
:10454000BB27892B8A2B8B2B09F459C00E94232B64
:104550008091162D9091172DA091182DB091192DA5
:104560002B2F2F932A2F2F93292F2F938F938BE469
:1045700090E2892F8F938BE490E28F931F921F928A
:104580001F921F920E94352B8DB79EB70A96CDBF02
:10459000DEBF89E590E2892F8F9389E590E28F93C2
:1045A0001F921F921F9281E08F930E94352B0F90D4
:1045B0000F900F900F900F900F9080910E2D909173
:1045C0000F2DA091102DB091112D2B2F2F932A2F4D
:1045D0002F93292F2F938F9385E690E2892F8F9326
:1045E00085E690E28F931F921F921F9282E08F9335
:1045F0000E94352B8DB79EB70A96CDBFDEBF8A814C
:104600009B8182709927892B09F433C182E08093C2
:10461000DC2C8091DA2C9091DB2C42E050E060E0C1
:1046200070E00E94E30525C18A819B8188279270F2
:10463000892B09F408C18091DA2C9091DB2C44E09D
:1046400050E060E070E00E942E068091DA2C90919C
:10465000DB2C40E054E060E070E00E942E06809188
:10466000DA2C9091DB2CCC24CA94DC2C760101E06E
:1046700021E040E050E260E070E00E94AB048091F5
:10468000DA2C9091DB2C40E050E0BA010E94E30567
:10469000DC01CB0181709927AA27BB27892B8A2BA4
:1046A0008B2B09F463C00E94232B8BE490E2892FAB
:1046B0008F938BE490E28F931F921F921F921F9211
:1046C0000E94352B0F900F900F900F900F900F902E
:1046D00080911B2D90911C2DA0911D2DB0911E2D10
:1046E0002B2F2F932A2F2F93292F2F938F9389E5E9
:1046F00090E2892F8F9389E590E28F931F921F920A
:104700001F9281E08F930E94352B8DB79EB70A963A
:10471000CDBFDEBF80910A2D90910B2DA0910C2D65
:10472000B0910D2D2B2F2F932A2F2F93292F2F93BD
:104730008F9385E690E2892F8F9385E690E28F93A1
:104740001F921F921F9282E08F930E94352B8DB78C
:104750009EB70A96CDBFDEBF8091DA2C9091DB2CFC
:1047600040E050E260E070E00E94E3058091DA2CC6
:104770009091DB2C40E050E0BA010E94E305DC019F
:10478000CB0180719927AA27BB27892B8A2B8B2BDA
:1047900009F459C00E94232B8BE490E2892F8F9358
:1047A0008BE490E28F931F921F921F921F920E94A0
:1047B000352B0F900F900F900F900F900F908091CE
:1047C0001B2D90911C2DA0911D2DB0911E2D2B2FD6
:1047D0002F932A2F2F93292F2F938F9389E590E2E0
:1047E000892F8F9389E590E28F931F921F921F92DA
:1047F00081E08F930E94352B8DB79EB70A96CDBF6F
:10480000DEBF80911F2D9091202DA091212DB09180
:10481000222D2B2F2F932A2F2F93292F2F938F93D6
:1048200085E690E2892F8F9385E690E28F931F9221
:104830001F921F9282E08F930E94352B8DB79EB7F7
:104840000A96CDBFDEBF8A819B8182709927892B12
:1048500091F081E08093DC2C8091DA2C9091DB2C1C
:1048600042E050E060E070E00E94E30504C0000018
:1048700003C0000001C0000064E670E080E090E04A
:104880000E94E81301CDCF92DF92EF92FF92CF9377
:10489000DF93CDB7DEB72E97CDBFDEBF8D879E8766
:1048A00019821A821B821C8280E896E9A8E9B0E08E
:1048B00089879A87AB87BC8706C061E070E080E09B
:1048C00090E00E94E8138091DA2C9091DB2C892BE8
:1048D000A1F38091DA2C9091DB2C40E050E0BA01FA
:1048E0000E94E305DC01CB0180749927AA27BB272E
:1048F000892B8A2B8B2B69F381E090E0A0E0B0E05C
:104900008D839E83AF83B88700C18091122D9091D3
:10491000132DA091142DB091152D0196A11DB11D3F
:104920008093122D9093132DA093142DB093152DD9
:104930008D819E81AF81B8850196A11DB11DBC01FD
:10494000CD010E94FB31DC01CB019C01AD0160E097
:1049500070E080E89FEB0E941F336B017C018D812A
:104960009E81AF81B885880F991FAA1FBB1F019731
:10497000A109B109BC01CD010E94FB31DC01CB01D1
:104980009C01AD01C701B6010E945331DC01CB018E
:104990009C01AD0169817A818B819C810E94E2300A
:1049A000DC01CB0189839A83AB83BC8320E030E0B8
:1049B00040E850E469817A818B819C810E94B23207
:1049C000DC01CB018093162D9093172DA093182D09
:1049D000B093192D8091DA2C9091DB2C40E050E0BF
:1049E000BA010E94E305DC01CB0180789927AA2750
:1049F000BB27892B8A2B8B2B59F08091DA2C909135
:104A0000DB2C40E051E060E070E00E942E060AC01E
:104A10008091DA2C9091DB2C40E051E060E070E076
:104A20000E94E3058091DA2C9091DB2C40E050E06D
:104A3000BA010E94E305DC01CB0180729927AA2705
:104A4000BB27892B8A2B8B2BF1F019821A821B82B0
:104A50001C8289859A85AB85BC858D839E83AF83B7
:104A6000B8871092162D1092172D1092182D1092B3
:104A7000192D8091DA2C9091DB2C40E650E060E01B
:104A800070E00E94E3058091162D9091172DA09162
:104A9000182DB091192D20ED3FE049E450E4BC0100
:104AA000CD010E944E318823D9F48091122D90912E
:104AB000132DA091142DB091152D80930E2D909350
:104AC0000F2DA093102DB093112D8091DA2C909181
:104AD000DB2C48E050E060E070E00E942E060AC047
:104AE0008091DA2C9091DB2C48E050E060E070E09F
:104AF0000E94E3058D819E81AF81B8850196A11D3D
:104B0000B11D8D839E83AF83B8872D813E814F81F8
:104B1000588589859A85AB85BC8582179307A4073C
:104B2000B50708F0F2CED5CECF92DF92EF92FF928A
:104B3000CF93DF93CDB7DEB76797CDBFDEBF8E8B48
:104B40009F8B80E090E0A0E8BFE389839A83AB83EA
:104B5000BC8383EF94E0A5E3BFE38D839E83AF83A3
:104B6000B88780E090E0A0E0BFE389879A87AB87B1
:104B7000BC8706C061E070E080E090E00E94E8132E
:104B80008091DA2C9091DB2C892BA1F38091DA2C87
:104B90009091DB2C40E050E0BA010E94E305DC017B
:104BA000CB0184709927AA27BB27892B8A2B8B2BB3
:104BB00069F381E08D8762C180910A2D90910B2D60
:104BC000A0910C2DB0910D2D0196A11DB11D8093CA
:104BD0000A2D90930B2DA0930C2DB0930D2D898150
:104BE0009A81AB81BC818E879F87A88BB98B2D81E1
:104BF0003E814F81588569817A818B819C810E9499
:104C0000E230DC01CB0120E030E040E050E4BC01C8
:104C1000CD010E945331DC01CB0189839A83AB83A0
:104C2000BC832D813E814F8158856E857F85888923
:104C300099890E94B232DC01CB01BC01CD010E94F6
:104C40007533DC01CB018D839E83AF83B887898167
:104C50009A81AB81BC8120E030E040E050E4BC01AF
:104C6000CD010E941F336B017C018D819E81AF813C
:104C7000B88520E030E040E050E4BC01CD010E9466
:104C80001F33DC01CB019C01AD01C701B6010E94BD
:104C9000E130DC01CB018A8B9B8BAC8BBD8B8D858E
:104CA000882F90E0A0E0B0E0BC01CD010E94FB3174
:104CB000DC01CB019C01AD0160E070E080E090E49C
:104CC0000E941F33DC01CB012A893B894C895D8915
:104CD000BC01CD010E94B232DC01CB019C01AD01CF
:104CE00069857A858B859C850E94E130DC01CB014A
:104CF00089879A87AB87BC8789819A81AB81BC8180
:104D000020E030E040E050E4BC01CD010E941F33C0
:104D1000DC01CB019C01AD01BC01CD010E94E23060
:104D2000DC01CB0129853A854B855C85BC01CD0131
:104D30000E945331DC01CB0180931B2D90931C2DDD
:104D4000A0931D2DB0931E2D8091DA2C9091DB2C19
:104D500040E050E0BA010E94E305DC01CB01882766
:104D60009470AA27BB27892B8A2B8B2B59F0809113
:104D7000DA2C9091DB2C40E050E260E070E00E9481
:104D80002E060AC08091DA2C9091DB2C40E050E294
:104D900060E070E00E94E3058091DA2C9091DB2CBA
:104DA00040E050E0BA010E94E305DC01CB018072D3
:104DB0009927AA27BB27892B8A2B8B2BA1F184E06B
:104DC0008D8780E090E0A0E8BFE389839A83AB837E
:104DD000BC8383EF94E0A5E3BFE38D839E83AF8321
:104DE000B88780E090E0A0E0BFE389879A87AB872F
:104DF000BC871A8A1B8A1C8A1D8A1E861F86188AEF
:104E0000198A10921B2D10921C2D10921D2D10929C
:104E10001E2D8091DA2C9091DB2C44E250E060E072
:104E200070E00E94E3058D858330D9F480910A2DCE
:104E300090910B2DA0910C2DB0910D2D80931F2DD5
:104E40009093202DA093212DB093222D8091DA2CC8
:104E50009091DB2C40E150E060E070E00E942E0673
:104E60000AC08091DA2C9091DB2C40E150E060E0A8
:104E700070E00E94E3058D858F5F8D878D8584307E
:104E800008F49ACE83CE1F920F9200903F000F92AB
:104E9000112400903B000F922F933F934F935F9309
:104EA0006F937F938F939F93AF93BF93EF93FF93F2
:104EB000CF93DF931F92CDB7DEB719828091252D56
:104EC0009091262D9E012F5F3F4F41E050E060E022
:104ED00070E00E949B0760E080E09BE00E94FF037F
:104EE00080E09BE0FC01168200000F90DF91CF91E3
:104EF000FF91EF91BF91AF919F918F917F916F91B2
:104F00005F914F913F912F910F9000923B000F9036
:104F100000923F000F901F901895CF92DF92EF9272
:104F2000FF920F93CF93DF9300D01F92CDB7DEB7E0
:104F300069837A838B839C8389819A81AB81BC81CD
:104F40000297A105B10540F482E090E0A0E0B0E056
:104F500089839A83AB83BC8380E09BE021E0FC01E2
:104F6000268380E09BE0FC0110A211A260E080E0BB
:104F70009BE00E941B0489819A81AB81BC818E3F9A
:104F80009F4FA105B10598F420E03BE089819A810B
:104F9000AB81BC81B695A79597958795F90186A3B6
:104FA00097A365E080E09BE00E94FF031FC089811A
:104FB0009A81AB81BC8180349244AF40B105B0F49A
:104FC00020E03BE089819A81AB81BC81689414F830
:104FD000B695A795979587951694D1F7F90186A36D
:104FE00097A367E080E09BE00E94FF038091252D5E
:104FF0009091262D0F2EF4EFCF2EDD24D394E12CAB
:10500000F12CF02D00E021E041E050E060E070E0A4
:105010000E94AB0400002496CDBFDEBFDF91CF918C
:105020000F91FF90EF90DF90CF900895CF93DF9393
:105030001F92CDB7DEB7898389818F70898389817B
:105040008295807F898380E096E020E036E0F90158
:10505000348129812F602323FC01248380E096E0A2
:1050600020E036E0F90134812981232BFC012483DF
:1050700000000F90DF91CF910895CF93DF931F929F
:10508000CDB7DEB789838981882331F080E696E049
:1050900021E0FC01258305C080E696E021E0FC01CB
:1050A000268300000F90DF91CF910895CF93DF9377
:1050B0001F92CDB7DEB789838981882331F080E6DE
:1050C00096E022E0FC01258305C080E696E022E020
:1050D000FC01268300000F90DF91CF910895CF93BC
:1050E000DF931F92CDB7DEB789838981882331F0A2
:1050F00080E696E024E0FC01258305C080E696E08A
:1051000024E0FC01268300000F90DF91CF910895E9
:10511000CF93DF93CDB7DEB781E00E946F2861E0C7
:1051200070E080E090E00E948D2780E00E946F2870
:105130000000DF91CF910895CF93DF931F92CDB7F9
:10514000DEB78983898182958F700E94162880E05E
:105150000E943D2880E00E9456280E94882889816C
:105160008F700E9416280E94882800000F90DF91FF
:10517000CF910895CF93DF931F92CDB7DEB7898388
:10518000898182958F700E94162881E00E943D28B7
:1051900080E00E9456280E94882889818F700E9492
:1051A00016280E94882800000F90DF91CF91089563
:1051B000EF92FF920F93CF93DF93CDB7DEB780E0EE
:1051C00096E020E1FC01218380E096E020E2FC01F2
:1051D000218380E096E020E4FC01218380E096E0DA
:1051E00020E8FC01218380E696E021E0FC01218398
:1051F00080E696E022E0FC01218380E696E024E050
:10520000FC01218380E096E020E036E0F901248172
:105210002F70FC01248380E696E020E636E0F90159
:105220002481287FFC01248340E066E188E00E941D
:10523000940D8093232D9093242D0E9488048093B5
:10524000252D9093262DE12CF12C02E020E030E07A
:1052500040E951E067E770E286ED99E20E9415129D
:105260000000DF91CF910F91FF90EF900895CF93C1
:10527000DF9300D01F92CDB7DEB789839A836B830B
:105280007C8389819A818130910589F082309105F2
:105290001CF4892B39F01AC08230910569F003970C
:1052A00081F014C08B8180580E949C280FC08B8194
:1052B00080540E949C280AC08B818C560E949C2896
:1052C00005C08B818C520E949C28000067E270E030
:1052D00080E090E00E948D2700002496CDBFDEBFC5
:1052E000DF91CF910895CF93DF931F92CDB7DEB7B3
:1052F000898389810E94BA286BE270E080E090E0A7
:105300000E948D2700000F90DF91CF910895CF93D9
:10531000DF9300D01F92CDB7DEB78B839C831982B9
:105320001A8219C089819A812B813C81820F931F37
:10533000FC0180818823A1F089819A812B813C81A5
:10534000820F931FFC0180810E94732989819A81B9
:10535000019689839A8389819A8144971CF301C0BD
:10536000000000002496CDBFDEBFDF91CF910895ED
:10537000CF93DF9300D000D0CDB7DEB789839A8377
:105380006B837C834D835E832B813C8189819A81F1
:10539000B9010E9437298D819E810E9487290000D2
:1053A0002696CDBFDEBFDF91CF910895CF93DF93D7
:1053B000CDB7DEB7C057D109CDBFDEBF9E012159A1
:1053C0003F4FF9018083918319821A821B821C82CC
:1053D0001D821E8226C01F8218861AC02D813E8122
:1053E00044E1429FC001439F900D11249E012F5F15
:1053F0003F4F280F391F8F819885820F931F089682
:1054000020E2FC0120838F81988501968F83988705
:105410008F819885449714F38D819E8101968D83A9
:105420009E838D819E810497B4F260E47CE980E0E4
:1054300090E00E948D2783E00E94162868E873E1BF
:1054400080E090E00E948D270E94882860EA70E04A
:1054500080E090E00E948D270E94882860EA70E03A
:1054600080E090E00E948D270E94882860EA70E02A
:1054700080E090E00E948D2782E00E9416280E9422
:10548000882888E20E949C2880E10E949C288CE069
:105490000E949C2886E00E949C2868EC70E080E0D6
:1054A00090E00E94E8138091252D9091262D40E0F8
:1054B00050E0BA010E94E305DC01CB01892B8A2B65
:1054C0008B2B09F496C08091252D9091262D42E0DA
:1054D00050E060E070E00E94E30519821A8226C065
:1054E0001B821C821AC029813A8144E1429FC0017B
:1054F000439F900D11249E012F5F3F4F280F391FAE
:105500008B819C81820F931F089620E2FC012083EF
:105510008B819C8101968B839C838B819C8144979A
:1055200014F389819A81019689839A8389819A816A
:105530000497B4F25EC08091232D9091242DBE017A
:10554000675A7F4F2FEF3FEFA9010E943B0F88233F
:1055500009F44FC019821A8232C0CE01875A9F4F78
:10556000FC018081482F50E0CE01875A9F4FFC01FB
:105570008181282F30E089819A81820F931FBE019B
:10558000675A7F4F29813A81260F371F2E5F3F4F81
:10559000F901608174E1749F9001759F300D1124B1
:1055A000AE014F5F5F4F240F351F820F931F089688
:1055B000FC01608389819A81019689839A83CE0157
:1055C000875A9F4FFC018181282F30E089819A8181
:1055D000820F931F44976CF49E01275A3F4F898195
:1055E0009A81820F931F0296FC018081882309F023
:1055F000B4CF8091232D9091242D0E94FB0F8823FE
:1056000009F099CF19821A8219C09E01275F3F4F76
:1056100049815A8164E1649FC001659F900D112406
:10562000280F391F89819A81A90160E070E00E94EA
:10563000B82989819A81019689839A8389819A817F
:1056400004971CF32ACFCF93DF93CDB7DEB78091B9
:10565000252D9091262D42E050E060E070E00E9400
:105660002E060000DF91CF910895CF93DF931F9214
:105670001F92CDB7DEB7CE010E9689839A8329811A
:105680003A814C855D856A857B85888599850E94F0
:105690004F2B00000F900F90DF91CF9108950F9343
:1056A000CF93DF93CDB7DEB7EC97CDBFDEBF8DAB29
:1056B0009EAB6FAB78AF49AF5AAF2BAF3CAF1982FF
:1056C0001A821B821C820BC08B819C818352934D5A
:1056D000FC0110828B819C8101968B839C838B8142
:1056E0009C8144978CF31D821E820BC08D819E810C
:1056F0008F50934DFC0110828D819E8101968D8388
:105700009E838D819E8144978CF3BEC18D898532A5
:1057100009F0A0C189AD9AAD9C012F5F3F4F29AF21
:105720003AAFFC0180818D8B8D89882F90E0853682
:10573000910509F446C18636910554F483369105E6
:1057400001F1843691050CF070C0859769F09CC119
:105750008337910571F18837910509F4A8C0863621
:10576000910509F4E6C090C189819A818F50934DCB
:1057700025E2FC01208389819A81019689839A839D
:1057800083C18BAD9CAD9C012E5F3F4F2BAF3CAFD7
:10579000FC01808191818E8B89819A818F50934DFC
:1057A0002E89FC01208389819A81019689839A83BD
:1057B0006BC18BAD9CAD9C012E5F3F4F2BAF3CAFBF
:1057C000FC01808191818F8B988F1F82188617C072
:1057D00029813A818F819885820F931F2F81388587
:1057E0004F89588D240F351FF90120818F50934D1B
:1057F000FC0120838F81988501968F8398878F89FC
:10580000988D0E948C399C018F819885821793070F
:10581000F8F28F89988D0E948C399C0189819A8138
:10582000820F931F89839A832FC18BAD9CAD9C01FE
:105830002E5F3F4F2BAF3CAFFC0180819181898F60
:105840009A8F898D9A8D4AE050E06DED7CE20E943E
:10585000A03919861A8615C029813A8189859A85C9
:10586000820F931F29853A852352334DF9012081F8
:105870008F50934DFC01208389859A8501968987F5
:105880009A878DED9CE20E948C399C0189859A85CE
:105890008217930708F38DED9CE20E948C399C01DE
:1058A00089819A81820F931F89839A83EDC08BAD82
:1058B0009CAD9C012E5F3F4F2BAF3CAFFC01808124
:1058C0009181898F9A8F898D9A8D40E150E06DED9D
:1058D0007CE20E94A0391B861C8615C029813A8172
:1058E0008B859C85820F931F2B853C852352334DDE
:1058F000F90120818F50934DFC0120838B859C857D
:1059000001968B879C878DED9CE20E948C399C01CF
:105910008B859C858217930708F38DED9CE20E948E
:105920008C399C0189819A81820F931F89839A8384
:10593000ABC08BAD9CAD9C012C5F3F4F2BAF3CAF00
:10594000FC0180819181A281B3818B8F9C8FAD8F6F
:10595000BE8F8B8D9C8DAD8DBE8DAC01BD018DED4F
:105960009CE20E941E2E1D861E8615C029813A814A
:105970008D859E85820F931F2D853E852352334D45
:10598000F90120818F50934DFC0120838D859E85E8
:1059900001968D879E878DED9CE20E948C399C013B
:1059A0008D859E858217930708F38DED9CE20E94FA
:1059B0008C399C0189819A81820F931F89839A83F4
:1059C00063C08BAD9CAD9C012C5F3F4F2BAF3CAFB8
:1059D000FC0180819181A281B3818B8F9C8FAD8FDF
:1059E000BE8F8B8D9C8DAD8DBE8DAC01BD018DEDBF
:1059F0009CE20E946D2F1F86188A15C029813A816A
:105A00008F859889820F931F2F8538892352334DB4
:105A1000F90120818F50934DFC0120838F85988957
:105A200001968F87988B8DED9CE20E948C399C01AA
:105A30008F8598898217930708F38DED9CE20E9469
:105A40008C399C0189819A81820F931F89839A8363
:105A500000001AC089819A818F50934D2D89FC01D5
:105A6000208389819A818F50934DFC0180818A30F7
:105A700031F489819A818F50934DFC011082898184
:105A80009A81019689839A8389AD9AAD9C012F5F93
:105A90003F4F29AF3AAFFC0180818D8B8D898823E0
:105AA00009F034CE29813A818FA998AD820F931FD6
:105AB000449754F024E130E08FA998ADA901481B28
:105AC000590BCA0189839A83198A1A8A0EC09E01CA
:105AD0002F5D3F4F89899A89820F931FFC011082A5
